:020000040000FA
:108000008028002009830000118300009196000061
:108010000000000000000000000000000000000060
:108020008F9E939B01999697FE000000B9810000F6
:1080300000000000083001005D820000BD820000E9
:108040001B8300001B8300001B8300001B830000B8
:108050001B8300001B8300001B8300001B830000A8
:108060001B8300001B8300001B8300001B83000098
:108070001B8300008D9E00001B8300001B830000FB
:108080001B8300001B8300001B8300001B83000078
:108090001B8300001B8300001B8300001B83000068
:1080A000759F00001B8300001B8300001B830000E2
:1080B0001B8300001B8300001B8300001B83000048
:1080C00000F002F800F030F80CA030C8083824188E
:1080D0002D18A246671EAB4654465D46AC4201D100
:1080E00000F022F87E460F3E0FCCB6460126334202
:1080F00000D0FB1AA246AB463343184718CD000008
:1081000038CD00000023002400250026103A01D3BA
:1081100078C1FBD8520700D330C100D50B6070473F
:108120001FB51FBD10B510BD00F040FB1146FFF795
:10813000F7FF06F06DFA00F058FB03B4FFF7F2FF0B
:1081400003BC00F05BFB000080F309887047EFF38D
:1081500009807047684680F3098806480078C007A0
:1081600003D1032080F314887047022080F3148821
:1081700070470000D8410100064B9C46EFF3058391
:108180001B0605D1EFF31483DB0701D000DF704736
:10819000604700001DF40000064B9C46EFF305838A
:1081A0001B0605D1EFF31483DB0701D000DF704716
:1081B0006047000031F60000EFF309808169891EF5
:1081C0000978002933D1A6461FC8A4467446E04763
:1081D0001F4B06CB914224D0083B002910D00CB491
:1081E000203101234B70EFF30983203B4B60F0C338
:1081F00044464D4656465F46F0C307F0AFFC0CBC04
:108200001A60203253681033F0CBA046A946B2461C
:10821000BB4683F30988203BF0CB5078002803D07D
:108220001078EFF3098318600223DB43184710B579
:10823000084A1268914209D8074C89006458A6463A
:108240001FC8A446F047EFF309840FC410BD000017
:10825000B8F4FF1F608800006088000007F064FB2E
:10826000154B06CB914223D0083B0CB420310023A0
:108270004B70EFF30983203B4B60F0C344464D46FF
:1082800056465F46F0C307F069FC0CBC1A6020320A
:1082900053681033F0CBA046A946B246BB4683F3E1
:1082A0000988203BF0CB5078002801D01078186165
:1082B0000223DB4318470000B8F4FF1F07F006FD58
:1082C000CEE7000006F050FC07F000FDC8E7000014
:1082D00070B505460C46164602E00FCC0FC5103EA1
:1082E000102EFAD2082E02D303CC03C5083E042E6A
:1082F00007D301CC01C5361F03E021782970641C27
:108300006D1C761EF9D270BD0748804707480047AC
:10831000FEE7FEE7FEE7FEE7FEE7FEE70448054965
:10832000054A064B70470000D99D0000C18000003F
:108330008026002080280020802700208027002021
:10834000004870471C260020034610B50B439B07CE
:108350000FD1042A0DD308C810C9121FA342F8D0A8
:1083600018BA21BA884201D9012010BD0020C043AB
:1083700010BD002A03D0D30703D0521C07E0002011
:1083800010BD03780C78401C491C1B1B07D10378D7
:108390000C78401C491C1B1B01D1921EF1D11846C0
:1083A00010BD000030B5441C03E00178401C0029DA
:1083B0000DD08107F9D10B4BDD0104C8D11A9143CF
:1083C0002940FAD0001B0A0603D0C01E30BD001B96
:1083D00030BD0A0401D0801E30BD0902FCD0401E11
:1083E00030BD000001010101421E5378521C002BD8
:1083F000FBD10B78491C1370521C002BF9D170472C
:10840000FFFFFFFFFFFFFFFFFFFFFFFFFEFFFFFF7D
:108410000346F0B50B439B072DD1244DEF01042AF1
:1084200029D308C810C95E1B9E43121F3E4017D0B7
:10843000D8B2E1B2401A3106014310D198B2A1B2CC
:10844000401A310401430AD118022102000A090A24
:10845000401A3102014302D1180E210E401AF0BD1C
:10846000A342DCD018BA21BA884201D90120F0BD5C
:108470000020C043F0BD002A01D10020F0BD0378E8
:108480000C78401C491C002B0DD0A3420BD1521E6E
:1084900009D003780C78401C491C002B03D0A34260
:1084A00001D1521EEBD1181BF0BD000001010101EA
:1084B000F8B5042A2CD3830712D00B78491C03701B
:1084C000401C521E83070BD00B78491C0370401CC4
:1084D000521E830704D00B78491C0370401C521EA7
:1084E0008B079B0F05D0C91ADF002023DE1B08C9AC
:1084F0000AE0FFF7EDFEF8BD1D4608C9FD401C4629
:10850000B4402C4310C0121F042AF5D2F308C91A34
:10851000521EF0D40B78491C0370401C521EEAD442
:108520000B78491C0370401C012AE4D409780170BF
:10853000F8BD431A70B593421BD28918801804E025
:10854000491E401E0B78521E03709307F8D106E0B7
:108550001039103878C9103978C01038103A102AFC
:10856000F6D203E0091F001F0B680360121FF9D544
:1085700070BDFFF7ADFE70BDF8B506461446084362
:10858000800707D0751AA54219D20819102D13D2E9
:10859000311907E03046FFF7CCFFF8BD401E491EF9
:1085A00002780A70641EF9D2F8BD471B2A46394684
:1085B000FFF77EFF641B3846A542F6D3011B224617
:1085C0003046FFF775FFF8BDD2B210B513029A1806
:1085D00013049A1800F00EF810BD01E004C0091F42
:1085E0000429FBD28B0701D50280801CC90700D06B
:1085F0000270704700290BD0C30702D00270401CE4
:10860000491E022904D3830702D50280801C891EDB
:10861000E3E70022EEE70022DFE70378C27819469D
:10862000437812061B0219438378C0781B04194350
:1086300011430902090A000608437047020A08703C
:108640004A70020C8A70020ECA7070470022030939
:108650008B422CD3030A8B4211D300239C464EE05D
:1086600003460B433CD4002243088B4231D3030919
:108670008B421CD3030A8B4201D394463FE0C309CB
:108680008B4201D3CB01C01A524183098B4201D3E3
:108690008B01C01A524143098B4201D34B01C01ACE
:1086A000524103098B4201D30B01C01A5241C30846
:1086B0008B4201D3CB00C01A524183088B4201D3B5
:1086C0008B00C01A524143088B4201D34B00C01AA1
:1086D0005241411A00D201465241104670475DE0B6
:1086E000CA0F00D04942031000D340425340002239
:1086F0009C4603098B422DD3030A8B4212D3FC22E2
:10870000890112BA030A8B420CD3890192118B4260
:1087100008D3890192118B4204D389013AD0921176
:1087200000E08909C3098B4201D3CB01C01A524131
:1087300083098B4201D38B01C01A524143098B42FA
:1087400001D34B01C01A524103098B4201D30B01E3
:10875000C01A5241C3088B4201D3CB00C01A524108
:1087600083088B4201D38B00C01A5241D9D24308EF
:108770008B4201D34B00C01A5241411A00D201462C
:10878000634652415B10104601D34042002B00D596
:108790004942704763465B1000D3404201B5002058
:1087A000C046C04602BD7047704770477546FFF728
:1087B000C7FDAE46050069465346C008C000854661
:1087C00018B020B5FFF7AAFD60BC00274908B646DF
:1087D0000026C0C5C0C5C0C5C0C5C0C5C0C5C0C5D0
:1087E000C0C5403D49008D46704710B50446C0469F
:1087F000C0462046FFF7A1FC10BD0000014918202B
:10880000ABBEFEE726000200704770B58C180578F5
:10881000401C6B075B0F01D10378401C2A1106D165
:108820000278401C03E00678401C0E70491C5B1E59
:10883000F9D12B0705D40023521E0DD40B70491C0F
:10884000FAE70378401CCB1A921C03E01D780D70E8
:10885000491C5B1C521EF9D5A142D8D3002070BD23
:1088600000000000F8B502787F2A02D000F04EF830
:10887000F8BD0A704478861C4C708D1C074F08E0C8
:108880002946304600F042F8010C3F188E1980B29C
:108890004519641EF4D23846F8BD000002000200FB
:1088A0000A4670B5014600200346062916D006DCAC
:1088B0000B0003F0DDFF0513131314181300FD293B
:1088C0000CD003DCF02909D111201CE0FE2919D0BD
:1088D000FF2903D1402010705370022070BD15464F
:1088E00005F02AFD02E0154605F02EFD0646FFF7CD
:1088F00059FD401CC4B2224631462846FFF7D8FD38
:10890000204670BD05201070012070BDF8B50278BA
:108910001346803B1F2B02D800F02AF9F8BD1346FE
:10892000A03B5E2B02D800F0A9F9F8BD0A700778C9
:108930004C1C421C0025FF218548864E3B0003F05D
:1089400097FF1E1018213EA6B3D0F2EB4F61F2F252
:10895000F2F2F2656A6F7E8DA33BF2F2F2F2F2F26E
:1089600088F21078611CFFF79BFF7B49207040184C
:10897000F8BD1078002843D0012841D021707648F6
:10898000401ECEE01178002903D0012902D0002139
:1089900012E001210122027070482025456040222A
:1089A00042600223436047692F434761456915438D
:1089B000456142691A43426121703046B1E0057059
:1089C0006648426920218A434261426940218A43C4
:1089D0004261426902218A43426125700120A0E080
:1089E0005078117807025F480F435D490068FFF730
:1089F0002DFE0321801CFFF729FE7843401EFDD188
:108A00002570BCE76570257002208AE0214610467B
:108A100000F0D2FB85E02146104600F09DFB80E08F
:108A20001778511C002F01D1FF270137384601F07C
:108A3000ADF9FF1D2570F8080004801971E0117868
:108A40008A07920F521C49070276C90F417625709A
:108A5000B3E72146104600F017F962E021700121CA
:108A600013780C46521C0AE01078521C8006800EC7
:108A700000D14020C01DC00812180918491C5B1EF7
:108A8000F2D2080420434CE010782170D4E711782A
:108A90000173937857781902394301821179D2789A
:108AA0000902114341824DE000782146012814D08B
:108AB0001346521C1078521C002808D01778521CFC
:108AC000BC0701D5FC0600D5121D401EF6D1D01AF8
:108AD0000D7000044D70801C23E0104600F018F962
:108AE0001FE0007817462146012809D00D704D700F
:108AF000A5700320F9781C4A890705D5104310E0BA
:108B0000104600F097FAF5E7B9787B780902194327
:108B100089048918084304E00078012804D02170F2
:108B200012488019F8BD0FE01746501CFFF775FD7D
:108B300039790002000A09060843009069460020BE
:108B400000F09AFE2570EBE7203CE1773046E9E73C
:108B5000F0F5FF1F010001000200020080F00F404D
:108B600040420F00D8F2FF1F000004000100050082
:108B7000FEB502780A704D1C01783D4C401C8039CE
:108B80000646671C0B0003F073FE0D0816223840E2
:108B90007171714755606468710005F0CDFB07463F
:108BA000FFF700FCC6B22E70681C32463946FFF74C
:108BB0007FFCA41927E00724684601F017FC224631
:108BC00069462846FFF774FC294C08344EE0684695
:108BD00001F00CFC002002900422314602A8FFF7AD
:108BE00067FC02980090684601F020FC002001F02C
:108BF0009DFC012028701F4C38E03E21681C08F0C5
:108C000039FE28702418641C30E03778401C39463F
:108C100008F094FE012025E001202870307800281B
:108C200005D0012803D000202870134C1EE005F069
:108C30009BFEFAE70120287004F046F8002802D1D4
:108C4000022008F0E1FB3C4610E0007807F0BCFA97
:108C5000EAE707F085FA2870F5E73778401C3946CF
:108C600007F054FB28703904081904192046FEBD8A
:108C7000010001000200050002000200FF20087050
:108C80000048704701000100F3B583B000220A706C
:108C9000491C0125009504910178441C01912AE0AA
:108CA0002778641CB806800E00D14020C01DC6087D
:108CB00038061648416902D54022914301E040221E
:108CC0001143416121463846049A00F089FD01981C
:108CD000002804D10D484169402211434161380602
:108CE00006D504988019049000988019009001E03E
:108CF000A419AD196D1C0198401E0190401CCFD1E4
:108D000000992804084305B0F0BD000080F00F4032
:108D1000F0B589B00890044600208D1C0391C3492A
:108D200002900870049005906678A41C002E6FD005
:108D30002778641CB9076CD50499002935D0BC4844
:108D4000008A01901120384001280FD16946384629
:108D500000F092FD02281AD10199491E0191491C87
:108D600003D0B24909780029F0D012E169460E20FB
:108D700000F082FD022808D10199491E0191491C89
:108D800003D0AA4909780029F0D0002104910128D4
:108D9000EBD1009929700099090A69700099090CB2
:108DA000A9700099090EE9702D1DF90658D52046C5
:108DB000FFF733FCE1780002000A09060843079038
:108DC0009B48241D408A0690F80715D09848008AD1
:108DD00001900021384600F04FFD022802D0012802
:108DE000C3D109E00199491E0191491CBDD08F49A9
:108DF00009780029EDD0CCE08D48008A01906946C1
:108E0000384600F039FD022804D001281CD10BE0BF
:108E1000E0E064E00199491E0191491C14D08349A6
:108E200009780029EBD00FE08149009A4969114087
:108E3000079A914208D00699491E0691491C03D011
:108E40007A4909780029D7D07949009A49691140AF
:108E5000079A914201D01021084301281AD13CE021
:108E60007349098A0191F90718D00499002934D16E
:108E70000021384600F000FD022802D0012809D167
:108E800009E00199491E0191491C03D067490978FD
:108E90000029EDD07DE0012104911EE069463846AD
:108EA00000F0EAFC022802D0012872D109E0019901
:108EB000491E0191491C6CD05C4909780029EDD00C
:108EC00067E0009929700099090A69700099090CF6
:108ED000A9700099090EE9702D1D00214DE004983C
:108EE000002823D05248008A019069460E2000F0E5
:108EF000C3FC022802D001284BD109E00199491E88
:108F00000191491C45D0494909780029EDD040E03C
:108F1000009828700098000A68700098000CA870EB
:108F20000098000EE87000202D1D04902046FFF7E9
:108F300074FBE1780002000A09060843241D009032
:108F4000B90603D53A494861012017E03848008A3C
:108F500001906946384600F08FFC022802D00128B3
:108F600017D109E00199491E0191491C11D02F49DF
:108F700009780029EDD00CE0012105910299491CE6
:108F800002912A490978002903D1761E00D0CFE644
:108F90000AE0002E08D02178641C8A0701D5C90692
:108FA00000D5241D761EF4E7012832D1049900294A
:108FB0001ED01F481D4F068A69460E2000F05CFC3B
:108FC000022802D0012824D105E0761E21D3397869
:108FD0000029F1D01DE0009929700099090A6970F3
:108FE0000099090CA9700099090EE9702D1D10E077
:108FF000059900290DD00E480C4F068A00210E203D
:1090000000F03AFC022804D1761E02D339780029F8
:10901000F4D0039A02991170039948700898039943
:10902000201A0004691A084309B0F0BD00F0FF1FC0
:10903000F0F5FF1FF3B583B00025CE1C0291444923
:10904000024628460D70917853780C02D21C1C43BE
:1090500073D01178521C0091039289075DD5009955
:10906000C90737D03B48078A0021009800F004FC6C
:10907000022802D0012860D12CE07F1E5DD3344944
:1090800009780029F0D058E0002C04D10098C007DE
:1090900001D00E2000902F48078A01A9009800F007
:1090A000EBFB022802D0012847D106E07F1E44D303
:1090B000274909780029F0D03FE0019931700199E2
:1090C0006D1C090A71700199090CB1700199090EA2
:1090D000F170361D641ED7D22FE00398FFF79DFA7A
:1090E00003990002C978000A090608430190039811
:1090F000001D03901748078A01A9009800F0BCFBE7
:10910000022802D0012818D106E07F1E15D310498D
:1091100009780029F0D010E06D1C641EDDD20D48E6
:109120000B4F048A00210E2000F0A6FB022804D178
:10913000641E02D339780029F4D002990D70029A86
:10914000290A517002998870029805B0301AF0BD52
:1091500000F0FF1FF0F5FF1FF8B50C460546FFF7BE
:109160005CFA0102E878090A0006104F014309D0B1
:109170000F48002600680F4D4008884205D801209E
:1091800068700FE0FF2020700EE040186E70401EE7
:10919000FFF75CFA012804D90321401CFFF756FAB7
:1091A00000E00120686026703846F8BD0100040028
:1091B000D8F2FF1FF0F5FF1FF8B507460578447891
:1091C0000E46801CFFF729FA01027879090A000689
:1091D00001432948E20706D0EB072022002B01D0EB
:1091E000426000E08260A20706D5AB074022002B58
:1091F00001DA426000E08260220607D5EA09D3075F
:109200000222002B01D0426000E08260002923D0BE
:1092100001230022E10704D001698906C90FA94290
:1092200017D1A10705D501696F084906C90FB942D1
:109230000FD1610701D5A9080BD1A10601D5690994
:1092400007D1210608D50169EF098907C90FB9427D
:1092500002D051429942DDD3016902698906C90FE2
:109260005206D20F5200006911438007C00FC0019F
:10927000014331700148F8BD80F00F400100060045
:1092800070B5194C0025257019486570174900689C
:10929000FFF7DCF9401E6060257364202082658240
:1092A00001206561207613486576816B1F2252028A
:1092B00011438163FF201049033048610F48202289
:1092C0004260436913434361FF2404348C614022AC
:1092D00042604369934343614C60022141604269AB
:1092E0000A43426170BD0000F0F5FF1F80969800B0
:1092F000D8F2FF1F0080044000B0044080F00F400F
:10930000F8B5C41D0546F934E06C1E460F4600282A
:1093100023D0402A00DD4022401EE064606D8001C1
:109320004019FFF7C5F8606D800141193846FFF715
:1093300099FA616D49004919FF3141310880606D2A
:109340000521800140193060606D401CFFF77EF9F7
:109350006165206D401C20650120F8BD10B5C41D5D
:10936000F934236D002B17D05B1E2365A36D9B0181
:109370001B180B60A16D49000818FF3041300088B0
:109380001060A06D0521401CFFF760F9A165E06C3D
:10939000401CE064012010BD002010BDFF30002201
:1093A00001304265826505210265C1647047000095
:1093B00070B50546EFF31080C407E40F72B6094E8E
:1093C000094B29463046F26800F010F8002805D114
:1093D000002329463046F26800F0D4F8002C00D172
:1093E00062B670BDC80D00206B66656BFFB589B0B5
:1093F00016460C466A46099804F06EFC3246214631
:10940000049B099804F09DF905002BD1009C019F55
:10941000A619761E39463046FFF718F900291BD0E9
:10942000401C7843461E17E021020920090A000665
:1094300009180D4841600C9804F09CF9002811D1DE
:10944000099804F0A1F9054609980069002800D0A0
:109450008047002D02D1E419B442E5D9099804F0FF
:1094600043F928460DB0F0BD0000024070B504007D
:1094700027D01648C0680001000F0F2823D01449D8
:109480004000085A80020025256060600120A0602D
:109490006561A56180022561E060204604F043F922
:1094A00000280AD00B4801468039056041604031F0
:1094B0008160E061204600F00FF8256200206562BF
:1094C00070BD042070BD01204004DCE740800440F2
:1094D000503F01007C0E002010B500280AD0C4695E
:1094E000606803F0C5FDA06803F07EFD02202060E7
:1094F000002010BD042010BDFFB589B01F46140028
:109500000D460DD06A46099804F0E6FB3A46294616
:10951000039B099804F015F9060002D1009D28E08C
:1095200004200DB0F0BD02CC1548816003990429D8
:1095300002D0082907D00EE029020322090A5206A8
:109540008918416007E002CCC16029020722090A9C
:10955000120689184160099804F016F90646099820
:109560000069002800D08047002E04D103984519D7
:109570003F1A002FD7D1099804F0B6F83046D0E74B
:1095800000000240FFB589B014460D466A460998AE
:1095900004F0A2FB22462946059B099804F0D1F865
:1095A00000282FD16A462946099804F095FB009DB2
:1095B000029808906942404201404F42AF4201D1B7
:1095C00008983F18002C1CD07E1BA64200D92646C6
:1095D00030460599FFF73AF829020122090A1206D6
:1095E0008A1809494A600C9A000412021043FF309D
:1095F0008860099804F0C8F8002803D1A41BAD19AD
:10960000DEE700200DB0F0BD00000240FFB589B0DC
:10961000129F1D0016460C4610D06A46099804F0A9
:109620005BFB32462146079B099804F08AF8002824
:1096300005D1154A39068F18009C22E004200DB090
:10964000F0BD21020120090A400609180F484160B7
:1096500087602968C160099804F096F8002809D04D
:109660001399002900D00C6014990029E7D000223A
:109670000A60E4E70799761A890889004D19079965
:109680000C19002EDDD1DAE7FFFFFF0000000240D9
:10969000EFF3088470460007000F0D2801D1EFF3A7
:1096A00009842546A08B2035800500D52D1D7046E8
:1096B000C00600D44835704603F074FBEFF3098010
:1096C00003F070FBEFF3088003F06CFBEFF3148002
:1096D00003F068FB284603F065FB606903F062FB5A
:1096E000A06903F05FFBE06903F05CFB4A2203A181
:1096F000002003F041F900F0BBFBFEE72E2E5C2EAC
:109700002E5C2E2E5C736F757263655C6461706C89
:10971000696E6B5C486172644661756C745F486128
:109720006E646C65722E630010B5EFF31080C00795
:10973000C00F72B60021064A1160002800D162B63F
:109740000448FFF793FE002800D0012010BD000060
:1097500000810440C80D00201CB507F033F8002834
:109760001AD09E2069460870E7204870102000F04B
:109770000DFB012407F026F800280DD000206946D3
:109780000870082000F002FB01A9002006F0B0FFDD
:10979000012802D1002C00D01CBD00201CBD0000FF
:1097A000FEB5074616460D46EFF31080C407E40FDA
:1097B00072B60B4639460948FFF79EFE002809D1CC
:1097C000012101900091029033462A463946034810
:1097D000FFF71CFF002C00D162B6FEBDC80D0020B3
:1097E000F0B583069B0E00D14023224C00062026B4
:1097F0001F4D646800281BDB37E00021082012E0C1
:10980000AE601C4C646827467F1EFDD12F696E60D8
:109810007F06FF0F641EFDD14C08F9012143401E55
:109820005B1E002801D0002BEAD1C1401170521CF0
:10983000002BE2D1F0BD0A780827491C12E0D007BE
:1098400002D04020686001E04020A860AE60204661
:10985000401EFDD16E602046401EFDD152085B1EA9
:109860007F1E02D0002BEAD1F0BD002BE3D1F0BD6A
:1098700080F00F40F0F5FF1F10B5054A5278002A1E
:1098800002D000F007F810BD00F0F2F810BD0000A3
:10989000F0F5FF1FF0B5744F40228C467A6020210E
:1098A000B9607960C30701D07A6000E0BA60B9603E
:1098B00079604308DD0701D07A6000E0BA60B960E2
:1098C0007960C4188308DD0701D07A6000E0BA60CF
:1098D000B9607960E418C308DD0701D07A6000E060
:1098E000BA60B9607960E318DB0701D07A6000E004
:1098F000BA60B9607960BA60B96079607A60B9605D
:1099000079607B69402293437B61584A127E131E23
:1099100003D0B9607960521EFBD1B9603A697960B1
:109920005206D20FB9603C6979606406E40F6400A6
:109930001443B9603A6979605206D20F920022430B
:10994000012A10D0022A6DD0042A6BD0213303D013
:10995000B96079605B1EFBD1796940200143796170
:1099600078601046F0BD840727D5002425462023C3
:10997000B9603E6979607606F60FAD196408F6079E
:1099800034435B1EF4D1B9603B6979605B06DB0F41
:109990005D40EB0700D008226346002B00D01C601E
:1099A000324B1B7E002B03D0B96079605B1EFBD16C
:1099B0007B69402423437B6123E0002B03D0B96003
:1099C00079605B1EF9E77B69402633437B61634620
:1099D0001B6800252024DE0702D040267E6001E0BF
:1099E0004026BE60B9607960ED185B08641EF2D154
:1099F000EB0702D040237B6001E04023BB60B960ED
:109A00007960000602D51948002383601748007B5F
:109A1000002805D04023BB60B9607960401EFBD1AF
:109A200040209DE7114C657E002D06D0840704D5AB
:109A30002124B9607960641EFBD1002B03D0B9608A
:109A400079605B1EF9E77C6940231C437C61002D33
:109A500007D0800705D4BB602120B9607960401E23
:109A6000FBD17B607DE7000080F00F40F0F5FF1F29
:109A7000F3B50023C34E402272602024B460C24F6D
:109A800079680D466D1EFDD174600D466D1EFDD1C9
:109A9000C50701D0726000E0B260B4600D466D1E73
:109AA000FDD174600D466D1EFDD11D184308DF0702
:109AB00001D0726000E0B260B4600F467F1EFDD13D
:109AC00074600F467F1EFDD1ED188308DF0701D0BB
:109AD000726000E0B260B4600F467F1EFDD174601A
:109AE0000F467F1EFDD1ED18C308DF0701D072605D
:109AF00000E0B260B4600F467F1EFDD174600F4677
:109B00007F1EFDD1EB18DB0701D0726000E0B26070
:109B1000B4609D4D0B465B1EFDD174600B465B1E11
:109B2000FDD1B260B4600B465B1EFDD174600B4684
:109B30005B1EFDD17260B4600B465B1EFDD174608C
:109B40000B465B1EFDD173694022934373612B7EEC
:109B50001D1E09D0B4600A46521EFDD174600A462B
:109B6000521EFDD15B1EF5D1B4600A46521EFDD1D6
:109B7000326974605206D20F0B465B1EFDD1B46091
:109B80000B465B1EFDD1336974605B06DB0F0F462D
:109B90007F1EFDD15B001343B4600A46521EFDD107
:109BA00032695206D70F202272600A46521EFDD13A
:109BB000BA001A43012A17D0022A70D0042A6ED0A4
:109BC00021350AD02023B3600846401EFDD17360C2
:109BD0000846401EFDD16D1EF5D17169402001433C
:109BE000716170601046FCBD83073ED50024254698
:109BF00020232027B7600F467F1EFDD137697F06DF
:109C0000FF0FBC46202777600F467F1EFDD16708F7
:109C10006446E4073C4365445B1EEAD12023B360FD
:109C20000F467F1EFDD1376973607F06FF0F491E07
:109C3000FDD17D40E90700D008220199002900D01C
:109C40000C6051490C7E002C0AD04D68B360294647
:109C5000491EFDD173602946491EFDD1641EF5D110
:109C600071694024214371613AE0002D0AD020241B
:109C7000B4600B465B1EFDD174600B465B1EFDD1CC
:109C80006D1EF5D17369402423437361019B002746
:109C90001B682025DC0703D04024746002E038E014
:109CA0004024B4602024B4600C46641EFDD12024FE
:109CB00074600C46641EFDD1FF185B086D1EE9D16F
:109CC000FB0702D04023736001E04023B3602024EF
:109CD0003546B4600B465B1EFDD16C60491EFDD15C
:109CE000000602D5284900208860274B197B0029EF
:109CF0000DD04020B0605B682024B4601846401E40
:109D0000FDD174601846401EFDD1491EF5D140209A
:109D100067E71D4B5B7E9C46002B0DD083070BD560
:109D200021242027B7600B465B1EFDD177600B46D0
:109D30005B1EFDD1641EF5D1002D0AD02024B46035
:109D40000B465B1EFDD174600B465B1EFDD16D1E84
:109D5000F5D1746940231C4374616446002C0ED015
:109D600080070CD4B36021242025B5600846401E2E
:109D7000FDD175600846401EFDD1641EF5D17360AB
:109D800030E7000080F00F40F0F5FF1FF0B5002332
:109D9000104C1A460E4E2027656815E0002A02D1A5
:109DA0000B780822491CDC0702D04024746001E0D3
:109DB0004024B460B7602C46641EFDD177602C4609
:109DC000641EFDD15B08521E401EE7D2F0BD0000AC
:109DD00080F00F40F0F5FF1F1E48002202601E4871
:109DE000816B4315194381631B491C48403148600E
:109DF0001B4883681B490B408360C3680B40C360EA
:109E0000194980200870194824214170A22101704D
:109E1000C178C906C90EC1700321017142718179EF
:109E2000C906FCD481790907890F0229FAD140219A
:109E3000417181790907890F0229FAD1817949068F
:109E4000FCD51A21017081790907890F0329FAD1FC
:109E500070470000008104400080044000000110B1
:109E600040900440FFF8FFFE0050064000400640CE
:109E7000BFF34F8F04490348C860BFF34F8F00BF43
:109E8000FDE700000400FA0500ED00E038B5254DBF
:109E90002C79E878800601D420208443E8780006F5
:109EA00001D480208443200616D51F4802F009FE05
:109EB000002800D00120E7221CA102F05DFD1A4815
:109EC00002F020FEE871184802F0FBFD002803D1E3
:109ED000E8784006400EE870A00605D56007800FC0
:109EE00003D0E8796946087038BDED791B4802F067
:109EF000D7FD0446132804D92946184802F03EFE2F
:109F000038BD02F0F1FE002807D0132CF8D113223F
:109F100013A1124802F083FE38BD104802F0F2FD92
:109F2000EAE7000000B00640880E00202E2E5C2ECE
:109F30002E5C2E2E5C736F757263655C6869635F5F
:109F400068616C5C667265657363616C655C6B6CA3
:109F500032367A5C756172742E63000098100020AE
:109F60003C4441504C696E6B3A4F766572666C6F3B
:109F7000773E0A00F8B52E4E002435780095280764
:109F800041D5317C0A090807C00F4B07DB0F154686
:109F900005431AD1950040002818C018254BC00071
:109FA0001D5CAD062D0F012D0FD1C5186F88002F38
:109FB0000BD1214FBA5C6A801A5C520601D5882207
:109FC00000E0C8221A5401200143EFF31080C507B6
:109FD000ED0F72B6194A184F143FB8681154192181
:109FE000401CFEF733FBB960002D00D162B608209B
:109FF0003070002C02D1307D800601D5012400E0B4
:10A0000000243578BBE700990B482943083804F051
:10A01000B6FF002C01D0012000E0002006491439D1
:10A020000A7810430870357002F0CEFBF8BD0000CE
:10A0300080200740001600209CF4FF1FC01C002059
:10A040001CB5002001906A4601A90948FFF786F96E
:10A05000002808D0074880210078009A0843019919
:10A0600002F0DAFB1CBD0449012008701CBD000091
:10A0700038230020963F010018F5FF1F38B5174D13
:10A08000174C28886188421A16486168007801F0E8
:10A0900053FF616880B209186160618809188AB24B
:10A0A000628029888A4206D20F49104B09784900FC
:10A0B000595A814211D96B460D490E48FFF720F9D4
:10A0C0000025002806D02078002803D00020FFF7C4
:10A0D000B7FF257065800648606038BD9C3F010071
:10A0E00018F5FF1F973F010063F5FF1F983F010020
:10A0F000F21400203823002010B50446400702D592
:10A100000020FFF7BBFF200702D50020FFF798FFD4
:10A1100010BD002070470000034801694069081A1B
:10A1200002490988081A704720F5FF1F8C3F01007B
:10A1300070B50B4D0C460346696B286B88420BD9F2
:10A14000401A844200DD044622461846FEF7B0F964
:10A15000686B0019686300E00024204670BD0000B1
:10A1600020F5FF1F00207047F8B5184F0C46064633
:10A1700079693869401A16490988081A002801DCEB
:10A180000020F8BD844200DD0446FA69B869002564
:10A1900090420DD30F4A031951188B4208D30D1A60
:10A1A0002A463146FEF784F976190A48641BB861DD
:10A1B000002C06D022463146FEF77AF9B86900191C
:10A1C000B8613969601909183961F8BD20F5FF1FB8
:10A1D0008C3F01007214002010B5054C6068002807
:10A1E00005D10120606000F005F80020606010BD1E
:10A1F00020F5FF1FF8B5234CA06800283DD0616909
:10A2000020690026421AE06811460143002935D032
:10A2100021461D4FC9691D4D002A10D0A0698142F9
:10A2200005D338888B182818834200D3421A18485F
:10A23000007843001748C05A904200DA0246164898
:10A24000E66000788023184302F0E6FAE169091815
:10A25000E1616269121862613B88EB188B4200D1A0
:10A26000E561216991420BD1094909784A00094900
:10A27000895A814204D10120E060F8BDA660F8BD92
:10A28000E660F8BD20F5FF1F8C3F0100721400202E
:10A2900063F5FF1F903F01008A3F010010B50C4C91
:10A2A000206A002803D0A06A401CA06210BD0120D3
:10A2B0002062606200F00EF8002060622062616B34
:10A2C000206B8842F2D0401AFFF74CFF10BD00000F
:10A2D00020F5FF1F10B5134C1348216B154B0A1ABC
:10A2E00012480088821A124800784000185A8242A8
:10A2F0000EDB1148007801F01FFE216B0818206367
:10A30000A06A00280CD0616A002909D1401E06E02D
:10A310000120E062606A002802D0A06A401CA062AE
:10A3200010BD000020F5FF1FB21400208E3F010079
:10A3300063F5FF1F903F01008B3F010010B50446FD
:10A34000400702D52046FFF7A9FF200702D5204687
:10A35000FFF742FF10BD7047002070470020704794
:10A3600010B50C4800F042F8002812D00948FEF75A
:10A3700054F90949020A08704A70020C8A70000EEA
:10A38000C870044802790A7142794A7180798871EB
:10A39000012010BD58F5FF1F7013002010B51048A4
:10A3A000002444608460C46004610E49816144619A
:10A3B000046244628462C462C1610B490163416307
:10A3C000014604804B203831C001FEF737F90448BC
:10A3D0000821383004714471817100F019F810BD02
:10A3E00020F5FF1F72140020B214002070B504463F
:10A3F000064D21462868FEF721F92879A071687971
:10A400006071A8792071012070BD0000E8F5FF1F80
:10A4100010B507F0FBF904F027F9012010BD10B5C5
:10A4200007F032FA012010BD0120704710B5044634
:10A43000FEF7F3F806490860A07908716079487161
:10A44000207988710020C871084607F02FFA10BDE6
:10A45000E8F5FF1F10B51148002444608460C46013
:10A4600004610F4981614461046244628462C46290
:10A47000C1610C49016341630480FFF7D0FF0749C4
:10A480004B203831C001FEF7D9F804480821383094
:10A49000047144718171FFF7C9FF10BD20F5FF1FE2
:10A4A00072140020B214002010B5FFF7D3FF10BDC6
:10A4B00070B51B480078002831D01A4C0025206A5E
:10A4C000012600280AD1616B206B884206D116490B
:10A4D000884203D02163E56225626163A06A002897
:10A4E00010D0206A00280DD1E06A00280AD1266227
:10A4F000FFF7F0FE2562616B206B884202D0401AA4
:10A50000FFF730FEA1686068084308D161692069DF
:10A51000884204D06660A660FFF76CFE656070BD7F
:10A5200061F5FF1F20F5FF1FB214002070B505462E
:10A530000F480068C1698847002816D10D4C002DCE
:10A5400006D004F033FA2060002006F05DFF0CE036
:10A5500004F02CFA2168401AFF212D31884201D3E2
:10A56000012000E0002004F089F8012070BD000007
:10A5700050310100E4F5FF1F0020704700207047B4
:10A5800010B502490880FFF74FFF10BD20F5FF1FEF
:10A5900010B50B48FEF741F8094C0002E178000ABB
:10A5A000090608430749FEF749F806482179017171
:10A5B00061794171A1798171FFF738FF10BD000009
:10A5C0007013002058F5FF1F01078A0E044910B5CB
:10A5D00051180A78FD231A400A7002F08FF810BD56
:10A5E000C020074010B501464A790B7980781102E6
:10A5F0001943020601D4024A115402F07FF810BD3B
:10A600009CF4FF1F704710B500F016FB10BD000052
:10A61000094A094980320028087D04D001231843E3
:10A620000875102005E0400840000875107AEF21F9
:10A6300008401072704700008020074010B50C4C95
:10A640000C48A2880078824200D90246002A03D131
:10A6500007490020143908718020216802F0DCF8D5
:10A66000216809182160A188081AA08010BD000087
:10A6700074F5FF1F713F010010B5064C0020A28841
:10A68000216801F059FC216809182160A188081A85
:10A69000A08010BD74F5FF1F704700000749020637
:10A6A00005D50007800E40180178FA2203E08000EB
:10A6B00040180178F622114001707047C020074011
:10A6C0000749020605D50007800E401801780522CB
:10A6D00003E080004018017809221143017070479F
:10A6E000C0200740F8B504466F4F704D704E80078C
:10A6F00020D502F05FF83878C009FFF7CDFFF88861
:10A70000A88038784106890F04D001295CD002293D
:10A7100075D169E079780B0002F0AAF80C070D7189
:10A7200013711928712D333B4A7101F0ABFD1FE005
:10A73000FFF784FF70E0002004E002F04FF85D486E
:10A740003DE0012001F0E0FD002858D0F5E7C0060B
:10A75000C00E54D1B8788021084330704006400EB6
:10A76000012102F011F802F039F855E001F074FC13
:10A77000002844D0DCE7C006C00E40D14C48401C45
:10A7800014E001F015FE002839D002F027F84A48FD
:10A7900015E0C006C00E012831D1707800282ED0F7
:10A7A0003879B17888422AD2444940182860BFE7F6
:10A7B00001F0C2FE002822D002F010F840480068E4
:10A7C000002829D0804727E0C006C00E17D00128F6
:10A7D00015D100F017F900281ED100F06FF90028FC
:10A7E0001AD100F0BBF808E0C006C00E07D100F097
:10A7F0009FF9002810D100F0E7F900280CD1387833
:10A80000C00904D1F888002801D0002000E0802091
:10A8100001F0C4FF0020A880600704D53878C00983
:10A820000DD001F0E3FF200733D53878C00927D0D9
:10A83000A888317908432CD0FFF700FF29E0A888C9
:10A840000028F0D0FFF718FFA8880028EBD138784F
:10A850004106890F0ED001290CD1C006C00E09D0C7
:10A86000012807D100F05CF80028DCD100F02AF8BC
:10A870000028D8D1802001F091FF0020A880D2E7E5
:10A880003078010605D54006400E3070002101F0F9
:10A890007BFF600602D50020FFF796FE200602D55A
:10A8A0008020FFF791FEF8BD7CF5FF1F74F5FF1FB8
:10A8B00060F5FF1FFC3F0100F43F010077F4FF1F2C
:10A8C000F83F010010B51349134A087912789042F5
:10A8D00003D0124A1278904219D14878002804D047
:10A8E000022805D0202812D10EE0FFF745FE05E032
:10A8F000C878897800020843FFF740FE002806D098
:10A9000001F06CFF012010BDFFF742FEF6E70020CA
:10A9100010BD00007CF5FF1FDCF2FF1FDDF2FF1F02
:10A9200010B50B490B4A08791278904203D00A4AB5
:10A93000127890420AD14878092807D100F082FBAA
:10A94000002803D001F04AFF012010BD002010BDF7
:10A950007CF5FF1FE0F2FF1FE2F2FF1F70B52449F4
:10A96000244A08791278904203D0234A1278904200
:10A970003BD11F484978C278837810021F4C204D84
:10A980001843042920D008DC00290FD001290FD05A
:10A9900002290BD0032928D111E0202906D0212932
:10A9A00019D022291AD023291FD11AE02C6010E0D7
:10A9B000FFF7D4FC05E02C60FFF740FE09E0FFF74D
:10A9C000CBFC0028F7D110E0FFF7A3FB0BE001F070
:10A9D00005FF012070BDFFF7C3FCF2E7FFF7D0FDD4
:10A9E00001E0FFF7A3FD0028F1D1002070BD0000B9
:10A9F0007CF5FF1FDCF2FF1FDDF2FF1F701300204C
:10AA000074F5FF1FF8B5254E25493079097888423D
:10AA100003D02449097888423DD17078224C234DD7
:10AA2000234F030001F024FF0C3707232D3737375E
:10AA300037371826333700F023FA00282BD0F07868
:10AA4000012802D0032803D003E01A48206000E068
:10AA50002560FFF7F3FD12E0F078022802D003280A
:10AA600003D00CE01448206009E0256007E000F006
:10AA7000EFF908E000F0BEFA0BE001F0AFFE0120B4
:10AA8000F8BD00F0F3F9002805D02760E1E700F0F9
:10AA9000CFFA0028F1D10020F8BD00007CF5FF1F9F
:10AAA000E0F2FF1FE2F2FF1F74F5FF1F84F4FF1FA7
:10AAB00070130020B1130020F213002010B51848C5
:10AAC000184A01791278914227D142780146C87814
:10AAD0008B7800021843CB798C7919022143FE2A26
:10AAE0000CD0FF2A19D1002817D1002915D101F067
:10AAF00063F9002811D001F071FE0CE000280CD1A0
:10AB000001290AD100F048FE002806D0074906486E
:10AB10000860FFF793FD012010BD002010BD00006C
:10AB20007CF5FF1FE1F2FF1F7013002074F5FF1F7B
:10AB300070B51F4D1F49687809780026884235D1C5
:10AB4000687929790002084302282FD1AA781A4C83
:10AB5000002A2BD0002004E02178002900D00C1915
:10AB6000401C411C8A42F7D82078002819D003F0F5
:10AB700089FB0146E01CFDF737FC104A01261460F2
:10AB8000E979AB7920780902194381420BD90C4944
:10AB900090800978491E084206D10A4901200870B0
:10ABA00002E0002602E09180FFF748FD304670BDCC
:10ABB0007CF5FF1F943F010038F4FF1F74F5FF1F61
:10ABC000713F010064F5FF1F10B5154A1549507813
:10ABD00009780024884220D1507911790002084375
:10ABE00007281AD1114B10481860417A007A0902DF
:10ABF0000143D0799279000201241043884209D997
:10AC00000B4899800078401E014204D10949012077
:10AC1000087000E09880FFF711FD204610BD00008D
:10AC20007CF5FF1F953F0100E8F2FF1F74F5FF1F41
:10AC3000713F010064F5FF1F074800214170C160AA
:10AC400001614161418081808161C161C180018177
:10AC5000016241817047000084F5FF1FF8B54A4E3C
:10AC6000B0887188494F00257C1C884218D3B06990
:10AC7000002815D17561B580012339787A1C1846F2
:10AC800007F0BAF970807088002809D040487761D1
:10AC90000078012801D8746102E07088401C70803F
:10ACA000708800283AD1F068002801D0F56035E0BE
:10ACB0003069002832D03649097801290ED83D7014
:10ACC000B58002237A1C0021012007F095F97080DD
:10ACD0007088002800D0746135611FE03C7801273E
:10ACE000202C00D300243946A14001421AD0601C18
:10ACF000C1B2264A02231170B5800120521C07F010
:10AD00007BF970807088002804D0204870617088BA
:10AD1000401C70803069A740B843306170880028BB
:10AD200006D102E0641CE4B2DAE7B069002828D05A
:10AD30007088B188174F401A84B23878410016489D
:10AD4000405AA04200D2044614480078002805D09A
:10AD5000802108432246716901F05EFD7069104947
:10AD600000197061B088001980B2B08009888842EB
:10AD700008D2387841000848405AA04202D1012048
:10AD8000B061F8BDB561F8BD84F5FF1FB0130020B8
:10AD90007C3F010063F5FF1F783F0100723F010017
:10ADA0007E3F0100F8B51C4C002620891B4D1C4F2E
:10ADB000002803D1E5613888E0802681E088218978
:10ADC000421A1848E169007801F0B6F8E16980B2EA
:10ADD0000918E161218909188BB22381002809D063
:10ADE00039888B4206D21049104A09784900515AD5
:10ADF000814210D90E48017801200129009003D822
:10AE00000021064A022003E029786A1C02205B1E0A
:10AE100007F08CF92681F8BD84F5FF1FF11300209F
:10AE2000803F0100733F010063F5FF1F783F010081
:10AE30007D3F010010B50446000702D52046FFF70C
:10AE40000DFF600702D52046FFF7ACFF10BD0000E4
:10AE5000034804498078085C034908700120704762
:10AE60007CF5FF1F82F4FF1F7013002010B507F060
:10AE7000C1F802490870012010BD000070130020C5
:10AE800010B50B490022C878012804D0022804D04C
:10AE9000032806D103E0074A02E0002010BD064A5D
:10AEA000521C8978002307F0A7F8012010BD00008C
:10AEB0007CF5FF1FB013002083F4FF1FFEB544484C
:10AEC000007800287ED0434E002031788446481C0C
:10AED00030704148042300784200821893405B1E82
:10AEE0000192994203DB0021317001218C463B4ADB
:10AEF00000251188FF2901D2491C118041003848E2
:10AF0000405A364900900988884200D101253549C8
:10AF1000002009788E4648E000216246002A0DD0C4
:10AF2000314A135CFF2B01D25B1C13542F4B1B5C6B
:10AF3000002B03D0125C9A4200D301212B4A02233A
:10AF4000145C019A934022469A40009B9A4203DA8D
:10AF5000002C01D0012200E00022002D06D0002AA2
:10AF600004D00123376983403B433361204B1B5C92
:10AF70009C420CD01C4C245C9C4206D301243769B3
:10AF800084403C43346100243470184C235400291D
:10AF900009D0002A04D10121326981401143316175
:10AFA000114A00211154401CC0B27045B4D3002D89
:10AFB00002D00A49002008803069002806D0708835
:10AFC000002800E002E001D1FFF748FEFEBD0000CE
:10AFD00061F5FF1F84F5FF1F63F5FF1F7EF4FF1F60
:10AFE000743F01007C3F010080F4FF1F81F4FF1FCC
:10AFF00082F4FF1F0A480A498078C978002802D0E5
:10B00000084A815409E0094B0020074A1B7802E0F6
:10B010001154401CC0B29842FAD30120704700007E
:10B020007CF5FF1F81F4FF1F82F4FF1F7C3F0100AE
:10B0300010B50348807807F077F8012010BD0000B4
:10B040007CF5FF1F38B50D490022C878012804D0CF
:10B05000022804D0032806D103E0002038BD084AA6
:10B0600000E0084A521C00230093CB798C791B0224
:10B070002343897807F05AF8012038BD7CF5FF1F7B
:10B08000F113002083F4FF1FF8B5EFF31080C00721
:10B09000C00F72B6564D0021EC68E9602A78009224
:10B0A0002970002800D162B6E00708D001F0DCFA70
:10B0B00007F0EAF84F480068002800D08047E00613
:10B0C00006D501F09FFB4C480068002800D080475F
:10B0D000A00606D501F04AFB48480068002800D0C9
:10B0E0008047600704D546480068002800D08047A4
:10B0F000022C09D143480168002902D04248007A55
:10B1000088474148FF210172200767D53F4FEFF381
:10B110001080C207D20F72B6A9686868884257D1FA
:10B12000012156E0EFF31081CE07F60F72B63849D1
:10B130000C5C1921401CFDF789FA6960002E00D1D2
:10B1400062B620462207D30F21066207090FD20FED
:10B15000002908D15C00A418E4003C5D0026A40688
:10B16000240F0D2C0AD08C005B00E3189A18D6002F
:10B17000BA5D9206120F012A13D01DE02869022140
:10B1800088432861387E4006400E3876387C400679
:10B19000400E38741F486E7001680029B7D0022035
:10B1A00014E0002902D1C007C00F68701948015986
:10B1B000002901D004208847B85D8006000F0928C7
:10B1C000A5D1144801590029A1D0082088479EE73D
:10B1D0000021002A00D162B60029A3D000980028DF
:10B1E00004D00949087DDF2210400875F8BD000031
:10B1F00088F4FF1FA03F0100A43F0100A83F010009
:10B20000AC3F0100B03F0100802007400016002045
:10B21000C01C0020B43F010010B51D48402404703C
:10B220001C4841680522120411434160416B22030E
:10B2300011434163182001F051FB1748017B802224
:10B2400011430173017B0906FCD41449124B090A0E
:10B25000803B197711490A0C0F4960390A740F4A6B
:10B26000120E0A75FF2119700D490968002900D0D6
:10B2700004210C4A1268002A00D00222114319222C
:10B28000114319710470017B2143017310BD00004B
:10B290009CF4FF1F0080044000210740001600209E
:10B2A000AC3F0100B03F010070B500F019F9002873
:10B2B0002AD01648022404704470154E03203463CB
:10B2C000307014480546FDF7A8F9022808D911493D
:10B2D00020461F39FDF7B2F929462046FDF7AEF9A1
:10B2E0000D488021007822460843084901F094FA6D
:10B2F0002846FDF792F9316B401A2946FDF79EF971
:10B30000044901200839087370BD00003214002080
:10B31000A8F5FF1FBB240020823F010010B5104993
:10B320000878022808D003280FD0042810D0052858
:10B3300001D10020087010BD0A48C07B282801D028
:10B34000A828F8D100F06CFA10BD00F077FD10BD10
:10B35000054880210078084300F08AFDF5E70000E9
:10B36000A8F5FF1F94240020823F010010B51D4A5C
:10B37000117800290FD0012910D01B480529007829
:10B380001BD0072927D000F073FD1849022008734D
:10B3900000F054FD10BD00F00FF910BD13481F3828
:10B3A000C07B2A2803D02F2804D0AA28F5D100F08A
:10B3B00015FB10BD00F0A2FA10BD012181400C4820
:10B3C0000068014201D0012000E00020094A0AA1E2
:10B3D00001F0D2FA10BD00201070106B1F28DAD0D7
:10B3E00010BD0000A8F5FF1F833F0100B32400201B
:10B3F0006CF5FF1F3F0400002E2E5C2E2E5C2E2EBF
:10B400005C736F757263655C7573625C6D73635CAE
:10B41000757362645F6D73632E63000010B5144C26
:10B420006068E060002801D0012010BD1148FDF7E0
:10B43000F4F8002814D00F480838007B000604D523
:10B440000D4880210078084308E00A481F30FDF7C6
:10B45000E4F8216B884203D00848007800F008FD2A
:10B46000044901201731087300F0E8FC002010BDEA
:10B47000A8F5FF1F9C240020823F0100833F0100AC
:10B4800010B5124801798F200140080605D508073C
:10B49000000F01221204824001E001228A400C4880
:10B4A0000478802004438C420ED10A480068104280
:10B4B0000AD00948FDF7B1F80849884204D10D22A5
:10B4C0000549204601F0A8F910BD00007CF5FF1FDA
:10B4D000823F01006CF5FF1FB324002055534253F7
:10B4E00070B50C48FDF799F80A4C0225173400286E
:10B4F00008D020461F38007B000608D40648007894
:10B5000000F0B6FC257300F099FC002070BD01200E
:10B5100070BD00009C240020833F010070B51148DD
:10B52000FDF77BF8104C216B884202D82063032082
:10B5300000E0042020700D4880210078226B084331
:10B540000B4901F069F907481F300546FDF765F81A
:10B55000216B401A2946FDF771F802490020173186
:10B56000087370BD9C240020A8F5FF1F823F0100D6
:10B570003214002010B506480649028806480078B3
:10B5800000F0DAFC05490863FFF7F0FE10BD00008B
:10B59000883F010032140020833F0100A8F5FF1FFF
:10B5A00010B50446400702D50020FFF7E3FF20074F
:10B5B00001D5FFF7B3FE10BDF8B5704E316B1F29F2
:10B5C00001D20A4600E01F2200206D4D6D4B02E0C3
:10B5D0001C5C2C54401C9042FAD36B4880220078AB
:10B5E0000127104300901F2970D16548FDF715F819
:10B5F000664988426AD1281DFDF70FF8604C1F3458
:10B60000211DFDF71BF820461738FDF706F82146E7
:10B610000831FDF713F8687B002804D1A87B0028C7
:10B6200001D0102801D9277374E0E87B2A283BD089
:10B6300020DC1A2847D00EDC0428F4D006DC0028D1
:10B640003BD00328EFD100F075FBF8BD1228EAD1FA
:10B6500000F0AAF8F8BD23283CD006DC1B282FD028
:10B660001E28E0D100F0CCF8F8BD252835D02828D8
:10B67000D9D13BE09E2836D00EDC5528D3D004DC4F
:10B680002F2842D03528CED103E05A281FD0912848
:10B69000C9D100F01DFCF8BDA12821D0A3284ED0AF
:10B6A000A82823D0AA28BED100F084FA0028F2D01E
:10B6B000287B00063BD43770F8BD00F013FCF8BDC2
:10B6C00000F0ECFBF8BD00F047FAF8BD3BE000F0FD
:10B6D00011FAFAE700F0F2FAF7E700F0C9FAF4E736
:10B6E000FFF7E2FDF1E700F07DFBEEE700F062FA24
:10B6F0000028EAD0287B000604D50220307000F034
:10B700008FF8E2E72248007815E0287C800704D40F
:10B710000020207300F092FBD7E700F04BFA0028DE
:10B72000D3D0287B000602D437703762CDE71648A5
:10B7300080210078084300F09BFB0220E9E7009895
:10B7400000F096FB6FE7104C009800F091FB20781A
:10B75000104C0107090F01200004884021680C4D9E
:10B7600008432060287800F083FB28788740206811
:10B770000743062027603070A7E70000A8F5FF1FE9
:10B780009424002032140020823F0100555342438C
:10B79000833F010070F5FF1F02490020087001205F
:10B7A000704700007013002010B5FFF799FE0028C5
:10B7B0001FD0104B00201870802159700221997001
:10B7C000D97020241C7158719871D8710A48016889
:10B7D00008200A78002A02D01A54491C00E01C54A0
:10B7E000401CC0B22428F4D3044924200863FFF786
:10B7F00095FE10BD3214002034F4FF1FA8F5FF1F82
:10B8000010B50548C07CC107044800D00121017370
:10B8100000F014FB10BD000094240020B32400208D
:10B82000F8B5314D314FA969686A002688420AD3BC
:10B83000387880210024084300F01AFB2C48067356
:10B8400000F0FCFA08E02B48007841002A48445AEE
:10B85000E86A844200D30446FFF7E0FD002800D1E7
:10B860000024A86A00282DD0002C0ED0A96AE8690F
:10B870008022411838781043224600F0CDFFA86A94
:10B880000019A862E86A001BE86229696869AA6A67
:10B890004143914203D1AE62696A08186862144854
:10B8A00008300746FCF7B9FE001B3946FCF7C6FE18
:10B8B000002C06D0E86A002803D1032028700C4829
:10B8C0000673F8BD002CE0D02969E86A4018401ED4
:10B8D000FCF7BCFE69690246884200D90A46E9695C
:10B8E000686A06F091FCC1E7A8F5FF1F823F0100DE
:10B8F000B324002063F5FF1F843F0100F8B5334CEB
:10B900000025A169606A884208D331482563007820
:10B9100000F0AEFA2F48057300F090FAFFF77EFDB5
:10B92000002806D0206B002824D0A06A002802D06E
:10B9300010E025631EE02169E06A4018401EFCF714
:10B9400085FE61690246884200D90A46E169606A5B
:10B9500006F05AFC00202049A76A266B08E0E3693C
:10B960003A189A5C0B5C9A4201D0256202E0401CB6
:10B97000B042F4D3266BA06A8119A162E06A871BEA
:10B98000E7622269606942438A4203D1A562616A23
:10B99000081860620F4808300546FCF73EFE801B21
:10B9A0002946FCF74BFE002E0CD0002F02D0207849
:10B9B000052807D1206A002805D000200549087312
:10B9C00000F03CFAF8BD0120F8E70000A8F5FF1FE1
:10B9D000833F0100B324002032140020F8B5384D15
:10B9E000384FA969686A0026884207D336482E6313
:10B9F000007800F03DFA3E7300F020FAFFF70EFDEC
:10BA0000002800D12E63296BA86A40182969884252
:10BA100005D9FE222DA1002000F0AEFFF8BD0020C8
:10BA2000334905E0AB6A0A5C1B18EC69401CE25420
:10BA30002A6B9042F6D3A86A8018A862E96A891A2C
:10BA4000E962002A25D0002914D1002812D02969E2
:10BA50004018401EFCF7FAFD69690446884200D987
:10BA60000C462246E969686A06F0E6FBAE62686A3F
:10BA700000190DE069692B690A465943814208D1D2
:10BA8000E969686A06F0D8FBAE626969686A4018BD
:10BA900068620C4808300090FCF7BFFD2C6B0099E1
:10BAA000001BFCF7CBFD002CB8D0E86A002802D0C0
:10BAB00028780528B2D13E7300F0C0F9F8BD000027
:10BAC000A8F5FF1FB3240020833F01002E2E5C2E1B
:10BAD0002E5C2E2E5C736F757263655C7573625C91
:10BAE0006D73635C757362645F6D73632E630000D6
:10BAF0003214002070B5FFF7F3FC002824D0FFF7C4
:10BB00008DFC002820D011480021017006224270CF
:10BB10000F4B81701A7A0824D201C27001714171F1
:10BB20008171C1710B481C630546FCF776FD08283E
:10BB300008D9084920461F39FCF780FD29462046D0
:10BB4000FCF77CFDFFF7EAFC70BD0000321400201A
:10BB5000A8F5FF1FBB24002070B5FFF7C1FC00282B
:10BB600020D0FFF75BFC00281CD00F480321017098
:10BB700000210E4B41701A7A0424D2018270C170E8
:10BB80000B481C630546FCF748FD042808D9084902
:10BB900020461F39FCF752FD29462046FCF74EFD92
:10BBA000FFF7BCFC70BD000032140020A8F5FF1F99
:10BBB000BB240020F8B52A48FCF72FFD284D00BA19
:10BBC000040A113D287D24020443264E002074629D
:10BBD000B062E87B2F280AD004DC28280BD02A2862
:10BBE0001CD104E0A82810D0AA2817D109E0FFF73B
:10BBF00015FC002830D0E87DA97D0002084344BA36
:10BC00000CE0FFF70BFC002826D01548001DFCF7C0
:10BC100004FD00BA040A287E240204433069444328
:10BC20000F48F4620938FCF7F8FC0D4F01260E3777
:10BC300000280DD0A04210D0287B000604D50A4869
:10BC400080210078084301E00848007800F010F9EE
:10BC50003E7300F0F3F80020F8BD0120F8BD0000AD
:10BC6000A5240020A8F5FF1F823F0100833F0100AB
:10BC700010B5FFF735FC00281AD0FFF7CFFB0028DE
:10BC800016D00C4A0C489169491E0B0E03700B0C20
:10BC900043700B0A8370C17011690B0E03710B0C9A
:10BCA00043710B0A8371C17108201063FFF736FCE2
:10BCB00010BD0000A8F5FF1F3214002070B5FFF77B
:10BCC0000FFC00282ED0FFF7A9FB00282AD0164829
:10BCD00000210170417081700821144AC17091697E
:10BCE0000C240B0E03710B0C43710B0A8371C17191
:10BCF0000221017211690B0C43720B0A8372C1722B
:10BD00000B4814630546FCF788FC0C2808D9084941
:10BD100020461F39FCF792FC29462046FCF78EFC92
:10BD2000FFF7FCFB70BD000032140020A8F5FF1FD8
:10BD3000BB24002070B5FFF7D3FB00282ED01B4892
:10BD40007021017000211A4B41705A68DD68144659
:10BD5000AC4306D006248470282404734173DA604F
:10BD60000AE0002A1BD0134A127B002A1BD00522AE
:10BD70008270202202734173C1700171417181711F
:10BD80000A22C271017241728172C1728173C173E0
:10BD90000174417412201863FFF7C0FB70BD0222CA
:10BDA00082703A22E6E781700173E4E732140020E2
:10BDB000A8F5FF1FB324002010B505490020086036
:10BDC0000449FCF73BFC044907200870012010BD22
:10BDD00070F5FF1FB3240020A8F5FF1F10B5FFF773
:10BDE000EBFF10BD70B5FFF77BFB00281DD00F489F
:10BDF0002022027000214170C1770D4C0320226384
:10BE000020700C48802100780843084900F004FDA8
:10BE100009480546FCF701FC216B401A2946FCF74E
:10BE20000DFC054901200839087370BD321400204B
:10BE3000A8F5FF1F823F0100BB24002010B5084970
:10BE40000848FCF7FBFB0848802100780D220843D6
:10BE5000034900F0E1FC05490520087010BD000011
:10BE6000B324002055534253823F0100A8F5FF1F21
:10BE700010B5044600F092FC200605D52107090FF5
:10BE800001200004884001E00120A04002490A6826
:10BE90001043086010BD00006CF5FF1F10B50A4884
:10BEA000817C04461F34002904D001202073FFF751
:10BEB000C5FF10BDC07C0549C007C00F486006F033
:10BEC000B9F90020F2E7000094240020A8F5FF1F34
:10BED00010B5034900200873FFF7B0FF10BD000044
:10BEE000B324002010B51048FCF797FB0E4C173414
:10BEF00000280FD020461F38007B000604D50B48D1
:10BF000080210078084301E009480078FFF7B0FF7E
:10BF1000012004E0FFF782FA002803D000202073FC
:10BF2000FFF78CFF10BD00009C240020823F010021
:10BF3000833F010070470000F7B5074682B000203C
:10BF400000903807860E3348F50028180190448881
:10BF5000002F15D130484078002809D07008012101
:10BF600081402D48103003F016F8002005B0F0BDD8
:10BF70002848405D8006000F0D2801D10120009067
:10BF80000498A04206D2FF22EE3224A1002000F045
:10BF9000F3FC049C1F4A0020B101C032891803E061
:10BFA000039A0B5C1354401CA042F9D31A48143076
:10BFB000C15D0198174F4180174876080069795D87
:10BFC000F040C0074906C00FC90F88420FD103983F
:10BFD000C1798279080200991043002901D0002814
:10BFE0000CD001210C48B140103002F0D4FF0A48B7
:10BFF0000069F040C00708D0C82007E006480121CA
:10C00000C943103002F0AFFFF1E788207855204691
:10C01000ACE700000016002088F4FF1F2E2E5C2ED7
:10C020002E5C2E2E5C736F757263655C6869635F4E
:10C0300068616C5C667265657363616C655C757381
:10C0400062645F6B696E657469732E630000000043
:10C0500010B5FFF715FA10BDFEB5574A574D1078C9
:10C06000574CC006C00E02D001287CD18CE0554947
:10C07000D0780B785149544E544FC978062810D0C7
:10C0800006DC012809D0022815D003286BD14FE027
:10C09000072832D00F2866D166E04D482060122074
:10C0A00070E0002B5FD0002903D04A4820600A20AE
:10C0B00068E04948FAE7002B01D1012979D0022034
:10C0C000002904D000977870002092780DE0009647
:10C0D0007070F9E700990B78002B05D0CB788E783B
:10C0E0001B02334359180091401C8242F2D1009840
:10C0F000017800295DD0206040E0002B59D0072056
:10C10000002904D000967070002092780DE000970E
:10C110007870F9E700990B78002B05D0CB788E78F2
:10C120001B02334359180091401C8242F2D1DEE7D2
:10C130002A4800909078032801D0002009E002F0FE
:10C14000FFF80DE000990B78002B01D059180091F1
:10C15000401C91788142F5D100980178002928D0BF
:10C16000206000780EE024E01D48007800281FD0F1
:10C170001C4800902060017800291AD0C17882788C
:10C1800008021043019005E001A9684600F02EF86E
:10C1900000280DD0A1880198814208D980B21249A7
:10C1A000A0800978491E084201D101202871012090
:10C1B000FEBD0020FEBD00007CF5FF1F60F5FF1FE7
:10C1C00074F5FF1F6F3F0100A8120020DFF2FF1F70
:10C1D0002440010037400100364001007240010058
:10C1E000703F010038400100713F010070B51A4AEC
:10C1F0001A4CD3781A4A25781478174A194E1279AE
:10C20000212B02D0222B24D118E0AA4201D0A24235
:10C210001FD1154A1378154A002B127801D1012A33
:10C2200017D0002A08D0124A02601046114A12881C
:10C2300080183060092009E00F4AF5E7AA4201D0D2
:10C24000A24206D10D4830600D48008808600120E8
:10C2500070BD002070BD00007CF5FF1FE0F2FF1FE5
:10C26000E2F2FF1F74F5FF1F6F3F010063F5FF1F30
:10C27000DFF2FF1FE6F2FF1FA812002000400100BE
:10C280002240010070B51D481D4B0078C106C90E43
:10C290000AD01D461948143D1A4C6A7800790129C4
:10C2A00006D0022928D10AE015480E38186021E08E
:10C2B000002A21D0A97888421ED2002016E08F21C2
:10C2C0000840010605D50607360F01210904B140D3
:10C2D00001E001218140002A01D100070CD1A868AA
:10C2E000084209D0E868084000D001202070000A08
:10C2F00060701C60012070BD002070BD7CF5FF1FC8
:10C3000074F5FF1F7013002070B5274B0246187894
:10C310001946C0064988254EC00E04D001282BD0EE
:10C32000022829D111E0012926D10224002A05D0B2
:10C33000012000F06FFAF088204304E0002000F0B4
:10C3400069FAF088A043F0802CE01C798F2004402B
:10C35000200605D52007000F01252D04854001E0AA
:10C360000125A5407078002806D0200704D0B068C9
:10C37000284201D0002901D0002070BD002A05D03C
:10C38000204600F00BFAF06828430AE030692842A2
:10C3900008D12046FEF718F92046FFF759FEF0684D
:10C3A000A843F060012070BD7CF5FF1F60F5FF1F02
:10C3B000F8B55A4800260178C906C90E7ED1574FF4
:10C3C00080781C3F00287AD0554801783846C078DC
:10C3D000002901D1012871D0002801D0514C70E012
:10C3E000514C6EE06078022805D0042847D005281B
:10C3F00047D0072860D1494861798078814239D196
:10C4000078702079B8704A490020484A0B8802E0C9
:10C4100000211154401C9842FAD301250120B9682B
:10C42000A840084202D02846FEF738F9012000044F
:10C43000B968A840084204D0284680210843FEF786
:10C440002DF96D1C102DE9D33A48B8600020F86032
:10C4500038613D460120FEF7D5F8E079400604D565
:10C46000E98801200143E98026E0E888400840008F
:10C47000E88021E0E078A178000208431DE0E6783A
:10C480001AE0002E18D1A5788F200540280605D582
:10C490002907090F01200004884001E00120A8407D
:10C4A000B96801432046B960FEF79CF82846FEF7BC
:10C4B00007F9284600F022F9207801E02AE004E09C
:10C4C0000419207800288DD11FE0002501247D70FB
:10C4D00080260120B968A040084202D02046FEF71D
:10C4E000DDF801200004B968A040084203D02046CE
:10C4F0003043FEF7D3F8641C102CEAD3FD600D48DE
:10C500003D61B8600020FEF77DF8044879788078B6
:10C51000884201D00020F8BD0120F8BD7CF5FF1F46
:10C520006F3F0100DFF2FF1FA812002077F4FF1F0A
:10C53000E4F2FF1F01000100F0B585B00027454877
:10C540000397019700783E46C006C00E01287ED1B1
:10C5500040491C394878002876D0002002903E4897
:10C5600002780846C078002A01D101286FD000283F
:10C5700001D03A4C64E03A4C62E06078022805D081
:10C5800004280ED005281ED0072857D131486179DC
:10C590001C384078814251D0E078A17800020843ED
:10C5A0004DE0A778E678002001902A480179B94249
:10C5B00044D18078B04241D1012002902948C15D28
:10C5C0000391C6553AE023490879B84236D1A0789C
:10C5D0008F22104000900006009804D50007000F3D
:10C5E00001252D0400E0012585408878B04214D152
:10C5F00018481C38816829438160C168A943C1601B
:10C600002046FDF7EFFF0098FEF75AF8009800F07B
:10C6100075F801982843019010E0039886420DD1E7
:10C62000019828420AD10B481C388168A9438160CF
:10C63000C168A943C1600098FEF730F8207804195A
:10C640002078002899D1029805B0F0BDFFE70020BE
:10C65000FAE700007CF5FF1F6F3F0100DFF2FF1FCC
:10C66000A812002077F4FF1F70B501201C490006B6
:10C670000860BFF34F8FBFF36F8F0120194D002467
:10C68000810049190C70401C1028F9D31921164853
:10C69000FBF7C1FF1548164944608460C46004700C
:10C6A000447040224A800A46C0324A60C8220A705A
:10C6B0000C72104ACC614A610D2129700E4901614A
:10C6C00008484038017D022211430175FF210170A5
:10C6D000017201730476182000F000F970BD0000AB
:10C6E00080E100E0C0200740C01C002088F4FF1F4C
:10C6F000001600204017002055555555F8B5054641
:10C70000154F2C073E4600060121C03E240F00288D
:10C710000EDA6000401C8140104802F030FC20021C
:10C72000C11960018019803141610021C161F8BDEA
:10C7300068008140C943094802F015FC07486101BF
:10C74000001D425D881942802202D219426088226F
:10C75000725400210172F8BDC016002098F4FF1F2A
:10C7600010B5FDF7A1FEFFF739FB10BD02480179B6
:10C77000DF221140017170478020074010B5FEF79D
:10C780009DFBFDF795FE10BD002903D1400602492F
:10C79000400E087670470000802007400007810E99
:10C7A0000348081801780222114301707047000005
:10C7B000C020074010B5082202490020FFF7BCFB4B
:10C7C00010BD00007CF5FF1F10B503480121490290
:10C7D000C06802F019F910BD4CF0FF1F10B500221F
:10C7E0001146802000F018F810BD000010B5034875
:10C7F000034902780020FFF79FFB10BD713F010045
:10C800007013002002480179202211430171704702
:10C810008020074070470000F8B50007114F840ED4
:10C820001646A41CE200D01946803D460023A00114
:10C83000C035451902E0C85CE8545B1CB342FAD32A
:10C84000094960080969C140C90701D0882100E091
:10C85000C821B954012181400348103002F09BFBEC
:10C860003046F8BD0016002088F4FF1F00207047F6
:10C8700030B47446641E2578641CAB4200D21D4659
:10C88000635D5B00E31830BC18470000002805DB3F
:10C89000C106C90E012088400149086070470000A8
:10C8A00080E200E0002809DBC106C90E01208840B3
:10C8B00003490860BFF34F8FBFF36F8F70470000CD
:10C8C00080E100E0002805DBC106C90E0120884098
:10C8D000014908607047000000E100E0002805DB26
:10C8E000C106C90E01208840014908607047000058
:10C8F00000E100E010B5002A06DA52005208D21D0D
:10C90000D308DB00102203E0D21C93089B000C220A
:10C91000002B02D09C188C4201D9012010BD821836
:10C920008360411802604160C91AD018884202D859
:10C9300010600246F9E70020106010BDB0B5044653
:10C9400003F05CFA002804D0034F0249BC4620687B
:10C9500000DFB0BDFFFF0000BDF80000B0B5044629
:10C9600003F04CFA002803D0024F2068BC4600DFD9
:10C97000B0BD000015F80000F8B516460F460028B7
:10C980001BD1EFF31080C507ED0F72B600231A46D6
:10C990001946184600F02AFA040003D131463846F9
:10C9A00000F07CFA002D00D162B6002C05D1EFF327
:10C9B0000380C00601D105F06DFFF8BD704700008F
:10C9C00010B528220D490E48FBF782FC06F020F82E
:10C9D0000C4806F017F805F03FFE0B4901220860ED
:10C9E0000A4952020A600A4A012111600949400AB3
:10C9F00008600A490848086010BD00009031010035
:10CA00009C02002011D50000DCF5FF1FB8F5FF1FC8
:10CA1000BCF5FF1FC0F5FF1F9C000020C4F5FF1FE1
:10CA200000B591B0FDF778FB402801D9402001E026
:10CA300000280DD081B2684604F01CFF010007D029
:10CA40006846FDF791FB002802D0012001F0F4FDBB
:10CA500004F094FF0146402801D9402101E000295B
:10CA60000DD06846FDF764FB002808D081B2684607
:10CA700004F064FF002802D0012001F0DDFD01F088
:10CA8000F3FD11B000BD0000044841788078814278
:10CA900001D001207047002070470000FCF0FF1F0C
:10CAA00030B50546EFF31080C407E40F72B6284690
:10CAB00000F007F8A968081A401E002C00D162B6E1
:10CAC00030BDEFF31081CB07DB0F72B606C8083814
:10CAD0008A4201D3501A02E080681018401A002BD5
:10CAE00000D162B67047EFF31083DB07DB0F72B63D
:10CAF0008260C160002101604160002B00D162B6FC
:10CB00007047000070B50446EFF31080C507ED0FC5
:10CB100072B603CC083C884201D0012000E000201E
:10CB200042220DA1FFF728FFE16820680E5C401C3F
:10CB30002060A16888420AD3884201D1012000E028
:10CB40000020472204A1FFF717FF00202060002DDE
:10CB500000D162B6304670BD2E2E5C2E2E5C2E2E7D
:10CB60005C736F757263655C6461706C696E6B5C3D
:10CB7000636972635F6275662E63000070B5044678
:10CB8000EFF31080C507ED0F72B66268E06881545C
:10CB90006068401C6060A16888420AD3884201D165
:10CBA000012000E00020302209A1FFF7E5FE00206F
:10CBB000606003CC884201D0012000E000203522D3
:10CBC00003A1FFF7D9FE002D00D162B670BD0000B1
:10CBD0002E2E5C2E2E5C2E2E5C736F757263655C40
:10CBE0006461706C696E6B5C636972635F627566C9
:10CBF0002E630000F8B514460E460746FFF761FFA6
:10CC0000844200D220460546002404E03846FFF75F
:10CC100079FF3055641CAC42F8D32846F8BDF8B50E
:10CC200014460E460746FFF73BFF844200D22046DB
:10CC30000546002404E0315D3846FFF79FFF641C81
:10CC4000AC42F8D32846F8BD10B50C48C078012195
:10CC5000C00948402A220AA1FFF78EFE1449012488
:10CC60006402084622461038FFF73DFF114922466C
:10CC700008461038FFF737FF10BD000000B006402F
:10CC80002E2E5C2E2E5C2E2E5C736F757263655C8F
:10CC90006869635F68616C5C667265657363616C2B
:10CCA000655C6B6C32367A5C756172742E63000061
:10CCB000980E0020A810002010B500F083FD10BDD4
:10CCC00010B500F07FFD10BD02488079002800D02B
:10CCD000012070471C2300200248C079002800D0A2
:10CCE000012070471C2300200248007A002800D051
:10CCF000012070471C230020F8B58D212648FBF742
:10CD000088FC8D272548FBF788FC234C244E234DB7
:10CD10004034B04213D168792A79010211438D2938
:10CD200001D20A4600E08D228D2901D90F4600E08C
:10CD30008D271A491848FBF7BBFB0020E0718D21B5
:10CD40001648FBF766FC15493046FBF777FC2F7158
:10CD5000390A697110494122C91DE81DFBF7A8FB7A
:10CD6000607A227A01020D48114340300172090AAB
:10CD70004172A17A8172E17AC1728A0006490C304F
:10CD80004C31FBF795FB04488030017B0348803031
:10CD9000017300F0BBF8F8BD8C220020002F0020AA
:10CDA000646C766B10B5094CE17A102901D3002030
:10CDB00010BD064A8900403A89184C31FBF73EFC09
:10CDC000E07A401CC0B2E07210BD0000402F00208D
:10CDD00010B541210448FBF71CFC03480021393001
:10CDE00001724172C17210BD072F0020FFB581B0E2
:10CDF0001D4616460F461A48FBF7D4FA441C019804
:10CE0000002802D03946FBF704FC0020002E00D099
:10CE10003080002D00D028701149C91FC879002822
:10CE20001BD0BC4201D8224602E0E01B41183A4622
:10CE30000B4C0198C91D3934002804D0607A237A3C
:10CE4000000218433080002E02D00198FBF730FB1F
:10CE5000002D01D0A07A2870012005B0F0BD00009F
:10CE6000072F00200148007B70470000802F002022
:10CE70000549CA7A002A04D00A460C320260C87AF0
:10CE80007047002070470000402F00200248807942
:10CE9000002800D001207047002F0020F3B581B09A
:10CEA0000746FBF77FFA124D441C41263146E81D28
:10CEB000FBF7AFFB412C02D83946224602E0413C49
:10CEC000E1193246E81DFBF7F3FA094C02984034A9
:10CED0002072000A607200F084F9002801D001205D
:10CEE00004E000F080F9002800D00220A072FEBD0E
:10CEF000002F00200149087370470000802F002098
:10CF00000149887170470000002F002070B5002291
:10CF100011461046FCF708FC092220492048FBF77F
:10CF2000C7FA204C22781046627812021043A27889
:10CF3000E1781204104309061B4D0843A8420FD1A3
:10CF40006079217900020843092804D260792179A7
:10CF500002020A4300E0092212491148FBF7A8FA2D
:10CF60000F492846FBF76AFB0D4909208880207885
:10CF70000146607800020143A07800040143E07894
:10CF800000060143A94205D16079217900020843D6
:10CF9000092802D2024801F00DFF70BDF0410100E6
:10CFA0001C23002000FC0100646C766B10B5034963
:10CFB0008871084601F0FEFE10BD00001C23002011
:10CFC00010B50349C871084601F0F4FE10BD000019
:10CFD0001C23002010B503490872084601F0EAFE40
:10CFE00010BD00001C23002070B506460F484024E9
:10CFF00045080F486D0041084900A9420CD94C1B57
:10D00000402C01D8012000E000200A4A0AA1FFF7C5
:10D01000B3FC402C00D94024224629463046FBF779
:10D0200047FA1248761C466070BD000011D7000018
:10D0300025D700001C0800002E2E5C2E2E5C2E2E04
:10D040005C736F757263655C6869635F68616C5C73
:10D05000667265657363616C655C6961705C66735B
:10D060006C5F666C6173682E63000000D0F2FF1F76
:10D0700070B506460F48402445080F486D0041082A
:10D080004900A9420CD94C1B402C01D8012000E0DA
:10D0900000200A4A0A49FFF76FFC402C00D94024BF
:10D0A000224629463046FBF703FA0648761C0660FE
:10D0B00070BD0000E5DF0000F1DF00008E0700001A
:10D0C00038D00000D0F2FF1FF8B50024E4430F462B
:10D0D0000646002512E0705D082102F075F9000691
:10D0E00044400A490820002C02DA64004C4000E069
:10D0F0006400401E0006000EF5D16D1CBD42EADB47
:10D100002021204602F060F9C043F8BDB71DC104DC
:10D11000F8B50E4617462021C04302F055F90446E3
:10D12000002512E0705D082102F04EF9000644402F
:10D130000A490820002C02DA64004C4000E0640038
:10D14000401E0006000EF5D16D1CBD42EADB202119
:10D15000204602F039F9C043F8BD0000B71DC104F4
:10D1600070B514460D460646FF2A07D8FF22DE3268
:10D170000AA10020FFF700FC022070BD00F06EFD48
:10D18000002801D0102070BD2A462146304600F00C
:10D190001DFF0028F7D01F2070BD00002E2E5C2E32
:10D1A0002E5C2E2E5C736F757263655C6461706CAF
:10D1B000696E6B5C647261672D6E2D64726F705C5A
:10D1C0006961705F666C6173685F696E74662E6317
:10D1D00000000000C1060007000F002900DB093035
:10D1E0007047002070470120704710B500231A4691
:10D1F00000F022FB002800D0012010BD10B505F082
:10D2000031F9012800D0002010BD0000F8B5164EFD
:10D21000012530780024ED03012806D0FF223832A2
:10D2200012A10020FFF7A8FB0AE0B078022700282F
:10D2300008D0FF223E320DA10020FFF79DFB377082
:10D240000220F8BD204600F02DF8002802D03770EB
:10D250002120F8BD012080022418AC42F2D3012025
:10D26000B0700020F8BD0000D8F0FF1F2E2E5C2EFD
:10D270002E5C2E2E5C736F757263655C6461706CDE
:10D28000696E6B5C647261672D6E2D64726F705C89
:10D290006961705F666C6173685F696E74662E6346
:10D2A00000000000F8B5254E05463078012805D06D
:10D2B000FF2223A10020FFF75FFB1AE00127BF0236
:10D2C00039462846FBF7C2F90224002902D0FF2282
:10D2D000083209E0F07800280DD0F168B0684018F5
:10D2E000A84208D0FF220F3215A10020FFF744FB0F
:10D2F00034700220F8BD01227F20D2038002012178
:10D30000954203D3854201D2002000E00846002860
:10D3100010D0F170F7602846B56001F025F9252896
:10D3200003D00028E6D03470F8BD284600F096FC03
:10D330000028F9D034702020F8BD0000D8F0FF1F7D
:10D340002E2E5C2E2E5C2E2E5C736F757263655CC8
:10D350006461706C696E6B5C647261672D6E2D64C4
:10D36000726F705C6961705F666C6173685F696E33
:10D3700074662E63000000000120800270470000E8
:10D3800010B5272804D2064980000858002805D186
:10D39000EC2204A10020FFF7EFFA0AA010BD000064
:10D3A000903001002E2E5C2E2E5C2E2E5C736F753D
:10D3B0007263655C6461706C696E6B5C6572726FE0
:10D3C000722E63000000000001460120272901D2CF
:10D3D0000148405C7047000001F0FF1FF3B581B0C9
:10D3E0000446009000E0641C2078402802D0002809
:10D3F000F9D164E06078622848D012DC522854D019
:10D4000008DC422842D0442849D0482841D04D2841
:10D4100017D134E054283FD0552833D0562810D1A6
:10D4200040E0722841D006DC642838D0682830D02B
:10D430006D2806D123E074282ED0752822D07628B6
:10D4400030D020A52046FAF7ADFF07462846FAF768
:10D45000A9FF0646A019029B009AC119D218891E7D
:10D4600091422BD2BA1EA11CFBF786F83246294600
:10D470002046FBF71DF820780028B5D11FE000F00A
:10D4800053FF01E000F058FF0546DBE700F0FAFE2D
:10D49000FAE700F027FFF7E700F04AFFF4E700F0B3
:10D4A0001DFFF1E700F050FFEEE70848807A002802
:10D4B00002D0064D0A35C5E705A5C3E7E419009873
:10D4C000201AFEBD4552524F520000002830010084
:10D4D00068747470733A2F2F6D6265642E6F726773
:10D4E0002F6465766963652F3F636F64653D4055C2
:10D4F0003F76657273696F6E3D40563F7461726727
:10D5000065745F69643D405400000000704700008E
:10D51000F8B51E4615460C46074605F02BFB2C4871
:10D520000178032912D001462039022C0FD0002C9B
:10D530001FD0012C0AD10A68AA4207D1807800289E
:10D5400033D00020421E08608A608861F8BD0868F8
:10D55000A842FBD1304605F057F80446304605F0A6
:10D5600059F80646384602F0B7FE034622463146D1
:10D5700017E0384602F0B0FE0328E7D0304605F049
:10D5800041F88007E2D4384602F0A6FE074630464E
:10D5900005F03AF80446304605F03CF801463B46B3
:10D5A0002246284604F02CF8F8BD094828220949EB
:10D5B0002038FAF78DFE03F0F1FC07488178012945
:10D5C00003D14178022900D1817003F0F1FCF8BD4C
:10D5D000BC02002090310100FCF0FF1FF7B51C4E8B
:10D5E0000446B0785502174600280BD12946019809
:10D5F00002F030FE032802D0214603F0ADFFB078E0
:10D60000002812D0124920394868A0420DD8C868B5
:10D61000A0420BD0A04208D90869401C00D10C617F
:10D620000869A04200D204460C61FEBDC8692A46C2
:10D630008018C861E019C860F078002803D0002085
:10D6400004F02EF8FEBD2046019903F02FFFFEBD29
:10D65000BC020020F0B585B018A1096804910378D8
:10D66000002104AA545C9C4226D0491C0329F9D30A
:10D6700013A10A688E6896464A68CD6800239446CE
:10D68000C25C714664466F46039552C711466139C4
:10D69000192911D9202A01D2052A0DD100216C4661
:10D6A000675C974208D0491C1029F9D35B1C0B2BEF
:10D6B000E6D3012005B0F0BD0020FBE7E500200027
:10D6C000222A2B2C2E2F3A3B3C3D3E3F5B5C5D7C5F
:10D6D00010B50448FAF7A1FF002801D0012010BDC1
:10D6E0000020FCE71830010070B50446204600F029
:10D6F0001AF80546002D00D070BD0449024809689B
:10D70000884700BFF8E700000C3000F0D4F2FF1F9C
:10D7100001680122920211430160BFF36F8FBFF3D2
:10D720004F8F70477047002807D0C069002802D08B
:10D730000068022803D06D20704704207047002045
:10D74000704710B5002806D05B1E194201D11A425D
:10D7500003D0652010BD042010BD03688B4204D89F
:10D76000406889181818884201D2662010BD002030
:10D7700010BD00000349884201D06B207047002093
:10D78000704700006B66656B10B50C4C7021217002
:10D79000FFF7C9FF002807D10949204609688847D3
:10D7A0002078810601D5672010BDC10601D568200B
:10D7B00010BDC007FCD0692010BD00000000024071
:10D7C000D0F2FF1F70B50E4D00202C78002C0FD02A
:10D7D00000212970A978002901D000F0ABFB022CB0
:10D7E00005D06978032902D0002800D1242070BD1B
:10D7F000FF22443203A10020FFF7BEF8022070BDD3
:10D80000A8F0FF1F2E2E5C2E2E5C2E2E5C736F75E3
:10D810007263655C6461706C696E6B5C6472616795
:10D820002D6E2D64726F705C666C6173685F6465E9
:10D83000636F6465722E6300FEB51C460546302991
:10D8400001D3012000E00020412217A1FFF794F846
:10D8500029460C2220316846FAF72AFE1F4E002C7A
:10D8600001D1002030711E49019888420BD11D4919
:10D870000098884201D10220FEBD1A49FC39884235
:10D880000FD10120FEBD284604F086FD002804D0FB
:10D89000002C04D10120307101E0002C01D00320C4
:10D8A000FEBD0020FEBD00002E2E5C2E2E5C2E2E16
:10D8B0005C736F757263655C6461706C696E6B5CE0
:10D8C000647261672D6E2D64726F705C666C61733B
:10D8D000685F6465636F6465722E6300A8F0FF1F64
:10D8E000019996978F9E939BFFB581B006460024C1
:10D8F00004982546002813D00A98002810D00499CF
:10D90000002008600A9907460860FFF76AFC0028B3
:10D9100012D00120C003022E04D0032E0AD03FE013
:10D920006B2253E00399002904D00299814201D06F
:10D930001B2436E0074610E0FFF755FC00282FD0E7
:10D94000012E02D0032E0AD02AE00398002804D02A
:10D950000298002801D01A2423E01F4819E01F482C
:10D96000FAF75BFE00281BD005460C3506E028467A
:10D970000830FAF752FE01280DD014352846FAF780
:10D980004CFE0028F3D1281DFAF747FE0028EED1FF
:10D990001348056805E02846FAF73FFE0746F7E713
:10D9A0001C24FFF799F9002801D1012E04D0002C86
:10D9B00004D0204605B0F0BD1C24FAE7002D04D0A9
:10D9C000049807600A980560F3E7AD2205A10020DE
:10D9D000FEF7D2FF0220EDE78C3101001830010084
:10D9E000503101002E2E5C2E2E5C2E2E5C736F7536
:10D9F0007263655C6461706C696E6B5C64726167B4
:10DA00002D6E2D64726F705C666C6173685F646507
:10DA1000636F6465722E6300F7B51E490646487849
:10DA20000025012804D0022805D0032830D105E0C4
:10DA30000125ED0326E07F25AD0223E008790028CB
:10DA400026D01548FAF7E9FD002821D004460C3409
:10DA50000CE0B74209D8201DFAF7DFFDB04204D32D
:10DA6000201DFAF7DAFD05460AE014342046FAF7DD
:10DA7000D4FD0700EDD1201DFAF7CFFD0028E8D135
:10DA8000002D05D002983018A84201D30120FEBD18
:10DA90000020FEBDA8F0FF1F1830010010B50D4C8E
:10DAA0002078002806D0BC220BA10020FEF764FFDE
:10DAB000022010BDFF2230211448FAF785FD012015
:10DAC000207000206070A060E0602061A070E070B5
:10DAD00010BD0000A8F0FF1F2E2E5C2E2E5C2E2EF7
