:020000040000FA
:1000000088180020850100008D010000510A0000C1
:1000100000000000000000000000000000000000E0
:10002000939D939B01999697FE000000910100001B
:10003000000000002A61000093010000350B000061
:100040009701000097010000970100009701000050
:100050009701000097010000970100009701000040
:100060009701000097010000970100009701000030
:1000700097010000210C000097010000970100008B
:100080009701000097010000970100009701000010
:100090009701000097010000970100009701000000
:1000A000E10C00009701000097010000970100009B
:1000B00097010000970100009701000097010000E0
:1000C00000F002F800F030F80CA030C8083824180E
:1000D0002D18A246671EAB4654465D46AC4201D180
:1000E00000F022F87E460F3E0FCCB6460126334282
:1000F00000D0FB1AA246AB463343184724700000D9
:10010000447000000023002400250026103A01D38B
:1001100078C1FBD8520700D330C100D50B607047BF
:100120001FB51FBD10B510BD00F07BFA1146FFF7DB
:10013000F7FF03F0F3FD00F093FA03B4FFF7F2FFCB
:1001400003BC00F099FA00008546084770B50546E3
:100150000C46164602E00FCC0FC5103E102EFAD208
:10016000082E02D303CC03C5083E042E07D301CCCE
:1001700001C5361F03E021782970641C6D1C761EB2
:10018000F9D270BD0748804707480047FEE7FEE701
:10019000FEE7FEE7FEE7FEE704480549054A064B91
:1001A000704700006D0B0000C100000088160020A1
:1001B000881800208817002088170020034610B5F3
:1001C0000B439B070FD1042A0DD308C810C9121F77
:1001D000A342F8D018BA21BA884201D9012010BD33
:1001E0000020C04310BD002A03D0D30703D0521C07
:1001F00007E0002010BD03780C78401C491C1B1B35
:1002000007D103780C78401C491C1B1B01D1921E9E
:10021000F1D1184610BD000030B5441C03E0017850
:10022000401C00290DD08107F9D10B4BDD0104C81A
:10023000D11A91432940FAD0001B0A0603D0C01EF0
:1002400030BD001B30BD0A0401D0801E30BD090244
:10025000FCD0401E30BD0000010101010346F0B595
:100260000B439B072DD1244DEF01042A29D308C845
:1002700010C95E1B9E43121F3E4017D0D8B2E1B298
:10028000401A3106014310D198B2A1B2401A31048C
:1002900001430AD118022102000A090A401A310258
:1002A000014302D1180E210E401AF0BDA342DCD04A
:1002B00018BA21BA884201D90120F0BD0020C043FC
:1002C000F0BD002A01D10020F0BD03780C78401C5D
:1002D000491C002B0DD0A3420BD1521E09D003782C
:1002E0000C78401C491C002B03D0A34201D1521EA4
:1002F000EBD1181BF0BD000001010101421E537833
:10030000521C002BFBD10B78491C1370521C002B84
:10031000F9D17047F8B5042A2CD3830712D00B7893
:10032000491C0370401C521E83070BD00B78491CDC
:100330000370401C521E830704D00B78491C0370C5
:10034000401C521E8B079B0F05D0C91ADF002023CB
:10035000DE1B08C90AE0FFF7F9FEF8BD1D4608C913
:10036000FD401C46B4402C4310C0121F042AF5D295
:10037000F308C91A521EF0D40B78491C0370401CB4
:10038000521EEAD40B78491C0370401C012AE4D4A5
:1003900009780170F8BDD2B210B513029A1813048F
:1003A0009A1800F00EF810BD01E004C0091F0429DE
:1003B000FBD28B0701D50280801CC90700D00270D8
:1003C000704700290BD0C30702D00270401C491EA1
:1003D000022904D3830702D50280801C891EE3E72B
:1003E0000022EEE70022DFE7020A08704A70020CE2
:1003F0008A70020ECA707047704770477047704726
:10040000FFFFFFFFFFFFFFFFFFFFFFFFFEFFFFFFFD
:10041000431A70B593421BD28918801804E0491E14
:10042000401E0B78521E03709307F8D106E0103976
:10043000103878C9103978C01038103A102AF6D21E
:1004400003E0091F001F0B680360121FF9D570BD80
:10045000FFF77CFE70BDF8B50646144608438007DA
:1004600007D0751AA54219D20819102D13D23119C7
:1004700007E03046FFF7CCFFF8BD401E491E02786A
:100480000A70641EF9D2F8BD471B2A463946FFF7A9
:1004900041FF641B3846A542F6D3011B2246304675
:1004A000FFF738FFF8BD0378C27819464378120683
:1004B0001B0219438378C0781B04194311430902B6
:1004C000090A000608437047002203098B422CD317
:1004D000030A8B4211D300239C464EE003460B4394
:1004E0003CD4002243088B4231D303098B421CD3F6
:1004F000030A8B4201D394463FE0C3098B4201D3E8
:10050000CB01C01A524183098B4201D38B01C01A1F
:10051000524143098B4201D34B01C01A5241030996
:100520008B4201D30B01C01A5241C3088B4201D345
:10053000CB00C01A524183088B4201D38B00C01AF2
:10054000524143088B4201D34B00C01A5241411A19
:1005500000D201465241104670475DE0CA0F00D0FC
:100560004942031000D34042534000229C460309F5
:100570008B422DD3030A8B4212D3FC22890112BA7B
:10058000030A8B420CD3890192118B4208D3890153
:1005900092118B4204D389013AD0921100E089096B
:1005A000C3098B4201D3CB01C01A524183098B424C
:1005B00001D38B01C01A524143098B4201D34B0135
:1005C000C01A524103098B4201D30B01C01A524198
:1005D000C3088B4201D3CB00C01A524183088B421F
:1005E00001D38B00C01A5241D9D243088B4201D3A8
:1005F0004B00C01A5241411A00D201466346524193
:100600005B10104601D34042002B00D54942704791
:1006100063465B1000D3404201B50020C046C0468F
:1006200002BD754600F024F8AE4605006946534603
:10063000C008C000854618B020B5FFF7ADFD60BC0E
:1006400000274908B6460026C0C5C0C5C0C5C0C5FC
:10065000C0C5C0C5C0C5C0C5403D49008D46704736
:1006600010B50446C046C0462046FFF766FD10BDE3
:10067000004870472816002001491820ABBEFEE74D
:100680002600020070B58C180578401C6B075B0FC4
:1006900001D10378401C2A1106D10278401C03E0E6
:1006A0000678401C0E70491C5B1EF9D12B0705D43F
:1006B0000023521E0DD40B70491CFAE70378401C2E
:1006C000CB1A921C03E01D780D70491C5B1C521E56
:1006D000F9D5A142D8D3002070BD000070B5054601
:1006E000EFF31080C407E40F72B6094E094B294698
:1006F0003046F26800F010F8002805D100232946A2
:100700003046F26800F01EF9002C00D162B670BDD0
:10071000100B00206B66656BFFB589B016460C4662
:100720006A46099802F0B2FF32462146049B0998B6
:1007300002F081FD05002BD1009C019FA619761EB9
:1007400039463046FFF7C0FE00291BD0401C7843D5
:10075000461E17E021020920090A000609180D4863
:1007600041600C9802F080FD002811D1099802F038
:1007700085FD054609980069002800D08047002DB6
:1007800002D1E419B442E5D9099802F027FD2846C0
:100790000DB0F0BD0000024070B5040027D016482F
:1007A000C0680001000F0F2823D014494000085AE8
:1007B00080020025256060600120A0606561A56160
:1007C00080022561E060204602F027FD00280AD063
:1007D0000B48014680390560416040318160E0612D
:1007E000204600F00FF825620020656270BD0420ED
:1007F00070BD01204004DCE740800440A866000092
:10080000C40B0020F8B500280FD0C5692248402449
:10081000460822487600400840006F68B0420ED972
:10082000841B402C03D8012002E00420F8BD0020E6
:100830001B4A1CA101F0FAFF402C00D9402422469B
:1008400031463846FFF766FD18487F1C0760184898
:10085000402446081748760040084000AF68B04280
:100860000DD9841B402C01D8012000E000200C4A47
:100870000CA18E3201F0DAFF402C00D94024224630
:1008800031463846FFF746FD08487F1C4760022086
:1008900028600020F8BD000009390000153900006B
:1008A0008E0700002866696C65290000B4F2FF1FFE
:1008B0000532000019320000FFB589B01F46140050
:1008C0000D460DD06A46099802F0E0FE3A462946E8
:1008D000039B099802F0AFFC060002D1009D28E0BE
:1008E00004200DB0F0BD02CC1548816003990429A5
:1008F00002D0082907D00EE029020322090A520675
:100900008918416007E002CCC16029020722090A68
:10091000120689184160099802F0B0FC0646099851
:100920000069002800D08047002E04D103984519A3
:100930003F1A002FD7D1099802F050FC3046D0E77B
:1009400000000240FFB589B014460D466A4609987A
:1009500002F09CFE22462946059B099802F06BFC9A
:1009600000282FD16A462946099802F08FFE009D83
:10097000029808906942404201404F42AF4201D183
:1009800008983F18002C1CD07E1BA64200D9264692
:1009900030460599FFF798FD29020122090A12063F
:1009A0008A1809494A600C9A000412021043FF3069
:1009B0008860099802F062FC002803D1A41BAD19DD
:1009C000DEE700200DB0F0BD00000240FFB589B0A9
:1009D000129F1D0016460C4610D06A46099802F078
:1009E00055FE32462146079B099802F024FC002858
:1009F00005D1154A39068F18009C22E004200DB05D
:100A0000F0BD21020120090A400609180F48416083
:100A100087602968C160099802F030FC002809D07D
:100A20001399002900D00C6014990029E7D0002206
:100A30000A60E4E70799761A890889004D19079931
:100A40000C19002EDDD1DAE7FFFFFF0000000240A5
:100A5000EFF3088470460007000F0D2801D1EFF373
:100A600009842546A08B2035800500D52D1D7046B4
:100A7000C00600D44835704602F030F8EFF3098024
:100A800002F02CF8EFF3088002F028F8EFF314805E
:100A900002F024F8284602F021F8606902F01EF8FE
:100AA000A06902F01BF8E06902F018F84A2203A1DD
:100AB000002001F0BBFE00F0A5F8FEE72866696C97
:100AC0006529000010B5EFF31080C007C00F72B6A3
:100AD0000021064A1160002800D162B60448FFF7E1
:100AE0005BFE002800D0012010BD00000081044002
:100AF000100B0020FEB5074616460D46EFF310809A
:100B0000C407E40F72B60B4639460948FFF7D4FE16
:100B1000002809D1012101900091029033462A4614
:100B200039460348FFF752FF002C00D162B6FEBDE4
:100B3000100B002070B50C4DEC68002C09D0296911
:100B4000002906D02868FFF7BFFC002901D100204A
:100B5000A0472868401C2860A868002802D0A86820
:100B6000401EA86070BD0000E0F2FF1F1E4800227A
:100B700002601E48816B4315194381631B491C4861
:100B8000403148601B4883681B490B408360C36841
:100B90000B40C36019498020087019482421417016
:100BA000A2210170C178C906C90EC170032101716B
:100BB00042718179C906FCD481790907890F02291C
:100BC000FAD14021417181790907890F0229FAD1AF
:100BD00081794906FCD51A21017081790907890FAD
:100BE0000329FAD1704700000081044000800440CE
:100BF0000000011040900440FFF8FFFE0050064046
:100C000000400640BFF34F8F04490348C860BFF35C
:100C10004F8F00BFFDE700000400FA0500ED00E083
:100C200038B5254D2C79E878800601D420208443FE
:100C3000E878000601D480208443200616D51F489A
:100C400001F063FE002800D00120E7221CA101F082
:100C5000EDFD1A4801F06CFEE871184801F055FEF0
:100C6000002803D1E8784006400EE870A00605D5BC
:100C70006007800F03D0E8796946087038BDED79C8
:100C8000114801F031FE0446132804D929460E48C4
:100C900001F07CFE38BD01F0C8FE002807D0132CFF
:100CA000F8D1132209A1084801F09EFE38BD06487C
:100CB00001F03EFEEAE7000000B00640D00B002045
:100CC0002866696C65290000E00D00203C44415015
:100CD0004C696E6B3A4F766572666C6F773E0A00B0
:100CE000F8B52E4E002435780095280741D5317C83
:100CF0000A090807C00F4B07DB0F154605431AD139
:100D0000950040002818C018254BC0001D5CAD069A
:100D10002D0F012D0FD1C5186F88002F0BD1214F3A
:100D2000BA5C6A801A5C520601D5882200E0C822AB
:100D30001A5401200143EFF31080C507ED0F72B67E
:100D4000194A184FBF1EF86811540D21401CFFF7B7
:100D5000BBFBF960002D00D162B608203070002C7A
:100D600002D1307D800601D5012400E000243578D1
:100D7000BBE700990B4829430E3003F0A4FA002C7E
:100D800001D0012000E000200649891E0A781043A6
:100D90000870357001F0DCFCF8BD000080200740D1
:100DA00000120020CAF2FF1F6015002001078A0E02
:100DB000044910B551180A78FD231A400A7001F051
:100DC0006DFC10BDC020074010B501464A790B7973
:100DD000807811021943020601D4024A115401F02D
:100DE0005DFC10BDCAF2FF1F70470000094A0949A7
:100DF00080320028087D04D0012318430875102094
:100E000005E0400840000875107AEF210840107294
:100E1000704700008020074010B50C4C0C48A28899
:100E20000078824200D90246002A03D107490020F7
:100E3000143908718020216801F0B2FC216809187A
:100E40002160A188081AA08010BD00000CF3FF1FCC
:100E5000C966000010B5064C0020A288216801F088
:100E60009DF8216809182160A188081AA08010BD8A
:100E70000CF3FF1F704700000749020605D5000765
:100E8000800E40180178FA2203E0800040180178B3
:100E9000F622114001707047C02007400749020642
:100EA00005D50007800E40180178052203E0800078
:100EB000401801780922114301707047C020074093
:100EC000F8B504466F4F704D704E800720D501F085
:100ED00035FC3878C009FFF7CDFFF888A88038784E
:100EE0004106890F04D001295CD0022975D169E03F
:100EF00079780B0001F080FC0C070D711371192833
:100F0000712D333B4A7101F08FF91FE0FFF784FF29
:100F100070E0002004E001F025FC5D483DE0012088
:100F200001F0C4F9002858D0F5E7C006C00E54D12E
:100F3000B8788021084330704006400E012101F04E
:100F4000E7FB01F00FFC55E001F0A2F8002844D0C7
:100F5000DCE7C006C00E40D14C48401C14E001F054
:100F6000F9F9002839D001F0FDFB4A4815E0C00628
:100F7000C00E012831D1707800282ED03879B17890
:100F800088422AD2444940182860BFE701F0A6FAF7
:100F9000002822D001F0E6FB40480068002829D054
:100FA000804727E0C006C00E17D0012815D100F0F9
:100FB0007DF800281ED100F07BF800281AD100F03F
:100FC00073F808E0C006C00E07D100F0ABF80028A7
:100FD00010D100F0A9F800280CD13878C00904D14C
:100FE000F888002801D0002000E0802001F09AFB62
:100FF0000020A880600704D53878C0090DD001F022
:10100000B9FB200733D53878C00927D0A8883179B3
:1010100008432CD0FFF700FF29E0A8880028F0D073
:10102000FFF718FFA8880028EBD138784106890F10
:101030000ED001290CD1C006C00E09D0012807D15D
:1010400000F030F80028DCD100F02AF80028D8D1D0
:10105000802001F067FB0020A880D2E730780106ED
:1010600005D54006400E3070002101F051FB6006AE
:1010700002D50020FFF79AFE200602D58020FFF758
:1010800095FEF8BD14F3FF1F0CF3FF1FF8F2FF1FCE
:101090003067000028670000C6F2FF1F2C670000C1
:1010A00000207047002070470020704700207047E4
:1010B00010B51848184A01791278914227D1427820
:1010C0000146C8788B7800021843CB798C791902D5
:1010D0002143FE2A0CD0FF2A19D1002817D100295C
:1010E00015D100F09FFE002811D001F03BFB0CE071
:1010F00000280CD101290AD100F092FB002806D06B
:10110000074906480860FFF787FE012010BD002050
:1011100010BD000014F3FF1FC5F2FF1FB810002020
:101120000CF3FF1F0020704700207047F8B5EFF365
:101130001080C007C00F72B6564D00212C6929617E
:101140002A7800922970002800D162B6E00708D002
:1011500001F05CFA04F0D2F94F480068002800D092
:101160008047E00606D501F011FB4C4800680028D6
:1011700000D08047A00606D501F0C2FA48480068B2
:10118000002800D08047600704D546480068002842
:1011900000D08047022C09D143480168002902D0C1
:1011A0004248007A88474148FF210172200767D5ED
:1011B0003F4FEFF31080C207D20F72B6E968A868FC
:1011C000884257D1012156E0EFF31081CE07F60F88
:1011D00072B638490C5C0D21401CFFF775F9A96007
:1011E000002E00D162B620462207D30F21066207E7
:1011F000090FD20F002908D15C00A418E4003C5D5F
:101200000026A406240F0D2C0AD08C005B00E318E6
:101210009A18D600BA5D9206120F012A13D01DE06B
:101220006869022188436861387E4006400E38763E
:10123000387C4006400E38741F486E7001680029E3
:10124000B7D0022014E0002902D1C007C00F687097
:1012500019480159002901D004208847B85D80064B
:10126000000F0928A5D1144801590029A1D0082050
:1012700088479EE70021002A00D162B60029A3D04A
:101280000098002804D00949087DDF221040087525
:10129000F8BD0000C8F2FF1FD4660000D866000049
:1012A000DC660000E0660000E46600008020074085
:1012B0000012002060150020E866000010B51D48EF
:1012C000402404701C484168052212041143416007
:1012D000416B220311434163182001F09BFA174828
:1012E000017B802211430173017B0906FCD4144960
:1012F000124B090A803B197711490A0C0F496039D2
:101300000A740F4A120E0A75FF2119700D490968F7
:10131000002900D004210C4A1268002A00D00222C1
:1013200011431922114319710470017B2143017388
:1013300010BD0000CAF2FF1F0080044000210740DA
:1013400000120020E0660000E466000070B500F0C6
:101350000BF900282AD01648022404704470154E58
:1013600003203463307014480546FFF79CF80228C8
:1013700008D9114920461F39FFF736F8294620467B
:10138000FFF732F80D4880210078224608430849CB
:1013900001F006FA2846FFF786F8316B401A294615
:1013A000FFF722F8044901200839087370BD0000D6
:1013B000F81000201CF3FF1F21160020CA66000051
:1013C00010B510490878022808D003280FD0042847
:1013D00010D0052801D10020087010BD0A48C07B3C
:1013E000282801D0A828F8D100F05EFA10BD00F03E
:1013F00057FD10BD054880210078084300F06AFDC4
:10140000F5E700001CF3FF1FFA150020CA66000074
:1014100010B51D4A117800290FD0012910D01B48A2
:10142000052900781BD0072927D000F053FD184963
:101430000220087300F034FD10BD00F001F910BD6A
:1014400013481F38C07B2A2803D02F2804D0AA288D
:10145000F5D100F007FB10BD00F094FA10BD01219A
:1014600081400C480068014201D0012000E00020CA
:10147000094A0AA101F0DAF910BD00201070106BC2
:101480001F28DAD010BD00001CF3FF1FCB66000040
:101490001916002004F3FF1F3F0400002866696C42
:1014A0006529000010B5144C6068E060002801D088
:1014B000012010BD1148FEF7F6FF002814D00F4898
:1014C0000838007B000604D50D48802100780843C9
:1014D00008E00A481F30FEF7E6FF216B884203D080
:1014E0000848007800F0F6FC044901201731087321
:1014F00000F0D6FC002010BD1CF3FF1F02160020D8
:10150000CA660000CB66000010B5124801798F2032
:101510000140080605D50807000F01221204824089
:1015200001E001228A400C480478802004438C4268
:101530000ED10A48006810420AD00948FEF7B3FFEE
:101540000849884204D10D220549204601F028F9B6
:1015500010BD000014F3FF1FCA66000004F3FF1F54
:10156000191600205553425370B50C48FEF79BFFE7
:101570000A4C02251734002808D020461F38007B6B
:10158000000608D40648007800F0A4FC257300F09B
:1015900087FC002070BD012070BD000002160020F5
:1015A000CB66000070B51148FEF77DFF104C216B33
:1015B000884202D82063032000E0042020700D48F8
:1015C00080210078226B08430B4901F0E9F80748B5
:1015D0001F300546FEF767FF216B401A2946FEF7CC
:1015E00003FF024900201731087370BD0216002066
:1015F0001CF3FF1FCA660000F810002010B5064853
:10160000064902880648007800F0C8FC05490863CE
:10161000FFF7FEFE10BD0000D0660000F8100020AD
:10162000CB6600001CF3FF1F10B50446400702D52F
:101630000020FFF7E3FF200701D5FFF7C1FE10BD33
:10164000F8B5704E316B1F2901D20A4600E01F2207
:1016500000206D4D6D4B02E01C5C2C54401C9042F0
:10166000FAD36B48802200780127104300901F298D
:1016700070D16548FEF717FF664988426AD1281D78
:10168000FEF711FF604C1F34211DFEF7ADFE204612
:101690001738FEF708FF21460831FEF7A5FE687BE4
:1016A000002804D1A87B002801D0102801D9277375
:1016B00074E0E87B2A283BD020DC1A2847D00EDCD7
:1016C0000428F4D006DC00283BD00328EFD100F03A
:1016D00067FBF8BD1228EAD100F0AAF8F8BD23286C
:1016E0003CD006DC1B282FD01E28E0D100F0CCF81F
:1016F000F8BD252835D02828D9D13BE09E2836D002
:101700000EDC5528D3D004DC2F2842D03528CED18A
:1017100003E05A281FD09128C9D100F00BFCF8BD76
:10172000A12821D0A3284ED0A82823D0AA28BED1F2
:1017300000F076FA0028F2D0287B00063BD4377000
:10174000F8BD00F001FCF8BD00F0DAFBF8BD00F0D8
:1017500039FAF8BD3BE000F003FAFAE700F0E4FAEA
:10176000F7E700F0BBFAF4E7FFF7F0FDF1E700F070
:101770006BFBEEE700F054FA0028EAD0287B000665
:1017800004D50220307000F08FF8E2E7224800789C
:1017900015E0287C800704D40020207300F080FB33
:1017A000D7E700F03DFA0028D3D0287B000602D40A
:1017B00037703762CDE7164880210078084300F083
:1017C00089FB0220E9E7009800F084FB6FE7104CEA
:1017D000009800F07FFB2078104C0107090F0120D2
:1017E0000004884021680C4D08432060287800F0F0
:1017F00071FB2878874020680743062027603070F7
:10180000A7E700001CF3FF1FFA150020F8100020C6
:10181000CA66000055534243CB66000008F3FF1F21
:10182000024900200870012070470000B810002015
:1018300010B5FFF799FE00281FD0104B002018703C
:101840008021597002219970D97020241C7158711F
:101850009871D8710A48016808200A78002A02D0D5
:101860001A54491C00E01C54401CC0B22428F4D374
:10187000044924200863FFF795FE10BDF8100020EE
:10188000C0F2FF1F1CF3FF1F10B50548C07CC10745
:10189000044800D00121017300F002FB10BD0000DC
:1018A000FA15002019160020F8B5314D314FA969FD
:1018B000686A002688420AD33878802100240843C9
:1018C00000F008FB2C48067300F0EAFA08E02B4809
:1018D000007841002A48445AE86A844200D304460A
:1018E000FFF7E0FD002800D10024A86A00282DD0D1
:1018F000002C0ED0A96AE86980224118387810437C
:10190000224600F04DFFA86A0019A862E86A001B91
:10191000E86229696869AA6A4143914203D1AE62CB
:10192000696A08186862144808300746FEF7BBFD6C
:10193000001B3946FEF758FD002C06D0E86A002847
:1019400003D1032028700C480673F8BD002CE0D0AA
:101950002969E86A4018401EFEF7B6FD696902462B
:10196000884200D90A46E969686A03F087FDC1E741
:101970001CF3FF1FCA66000019160020FBF2FF1FB0
:10198000CC660000F8B5334C0025A169606A884236
:1019900008D331482563007800F09CFA2F4805737E
:1019A00000F07EFAFFF77EFD002806D0206B0028AD
:1019B00024D0A06A002802D010E025631EE021692F
:1019C000E06A4018401EFEF77FFD616902468842CA
:1019D00000D90A46E169606A03F050FD0020204901
:1019E000A76A266B08E0E3693A189A5C0B5C9A4296
:1019F00001D0256202E0401CB042F4D3266BA06AFD
:101A00008119A162E06A871BE7622269606942432B
:101A10008A4203D1A562616A081860620F480830E3
:101A20000546FEF740FD801B2946FEF7DDFC002E33
:101A30000CD0002F02D02078052807D1206A00287A
:101A400005D000200549087300F02AFAF8BD0120EE
:101A5000F8E700001CF3FF1FCB66000019160020FA
:101A6000F8100020F8B5384D384FA969686A00268B
:101A7000884207D336482E63007800F02BFA3E7375
:101A800000F00EFAFFF70EFD002800D12E63296B3F
:101A9000A86A40182969884205D9FE222DA1002094
:101AA00000F0C4FEF8BD00202C4905E0AB6A0A5CDA
:101AB0001B18EC69401CE2542A6B9042F6D3A86ACA
:101AC0008018A862E96A891AE962002A25D00029EB
:101AD00014D1002812D029694018401EFEF7F4FCEA
:101AE00069690446884200D90C462246E969686A59
:101AF00003F0DCFCAE62686A00190DE069692B69CD
:101B00000A465943814208D1E969686A03F0CEFC6C
:101B1000AE626969686A401868620C4808300090D3
:101B2000FEF7C1FC2C6B0099001BFEF75DFC002C3E
:101B3000B8D0E86A002802D028780528B2D13E73D0
:101B400000F0AEF9F8BD00001CF3FF1F19160020CD
:101B5000CB6600002866696C65290000F81000203B
:101B600070B5FFF701FD002824D0FFF79BFC00288B
:101B700020D0114800210170062242700F4B817065
:101B80001A7A0824D201C270017141718171C17148
:101B90000B481C630546FEF786FC082808D908494F
:101BA00020461F39FEF720FC29462046FEF71CFC84
:101BB000FFF7F8FC70BD0000F81000201CF3FF1FB9
:101BC0002116002070B5FFF7CFFC002820D0FFF7CA
:101BD00069FC00281CD00F480321017000210E4B26
:101BE00041701A7A0424D2018270C1700B481C63C0
:101BF0000546FEF758FC042808D9084920461F3935
:101C0000FEF7F2FB29462046FEF7EEFBFFF7CAFC83
:101C100070BD0000F81000201CF3FF1F21160020EB
:101C2000F8B52A48FEF73FFC284D00BA040A113DDA
:101C3000287D24020443264E00207462B062E87BB3
:101C40002F280AD004DC28280BD02A281CD104E035
:101C5000A82810D0AA2817D109E0FFF723FC0028F4
:101C600030D0E87DA97D0002084344BA0CE0FFF7BC
:101C700019FC002826D01548001DFEF714FC00BAF8
:101C8000040A287E24020443306944430F48F46266
:101C90000938FEF708FC0D4F01260E3700280DD03D
:101CA000A04210D0287B000604D50A488021007885
:101CB000084301E00848007800F00CF93E7300F09A
:101CC000EFF80020F8BD0120F8BD00000B16002041
:101CD0001CF3FF1FCA660000CB66000010B5FFF7BB
:101CE00043FC00281AD0FFF7DDFB002816D00C4A71
:101CF0000C489169491E0B0E03700B0C43700B0AC4
:101D00008370C17011690B0E03710B0C43710B0AC8
:101D10008371C17108201063FFF744FC10BD0000FF
:101D20001CF3FF1FF810002070B5FFF71DFC002802
:101D30002ED0FFF7B7FB00282AD0164800210170EB
:101D4000417081700821144AC17091690C240B0EF6
:101D500003710B0C43710B0A8371C1710221017273
:101D600011690B0C43720B0A8372C1720B48146326
:101D70000546FEF798FB0C2808D9084920461F396C
:101D8000FEF732FB29462046FEF72EFBFFF70AFC42
:101D900070BD0000F81000201CF3FF1F211600206A
:101DA00070B5FFF7E1FB00282ED01B4870210170B1
:101DB00000211A4B41705A68DD681446AC4306D0C6
:101DC00006248470282404734173DA600AE0002A30
:101DD0001BD0134A127B002A1BD0052282702022BE
:101DE00002734173C1700171417181710A22C27124
:101DF000017241728172C1728173C1730174417445
:101E000012201863FFF7CEFB70BD022282703A22C7
:101E1000E6E781700173E4E7F81000201CF3FF1F70
:101E20001916002010B50549002008600449FEF786
:101E3000DBFA044907200870012010BD08F3FF1FDA
:101E4000191600201CF3FF1F70B5FFF78DFB00284B
:101E50001DD00F482022027000214170C1770D4C27
:101E60000320226320700C48802100780843084931
:101E700000F096FC09480546FEF715FB216B401A59
:101E80002946FEF7B1FA054901200839087370BDEB
:101E9000F81000201CF3FF1FCA6600002116002066
:101EA00010B508490848FEF79FFA084880210078D5
:101EB0000D220843034900F073FC05490520087012
:101EC00010BD00001916002055534253CA66000089
:101ED0001CF3FF1F10B5044600F024FC200605D5B6
:101EE0002107090F01200004884001E00120A040E3
:101EF00002490A681043086010BD000004F3FF1F88
:101F000010B50A48817C04461F34002904D0012002
:101F10002073FFF7C5FF10BDC07C0549C007C00F87
:101F2000486003F0C1FA0020F2E70000FA15002033
:101F30001CF3FF1F10B5034900200873FFF7B0FF23
:101F400010BD00001916002010B51048FEF7ABFABE
:101F50000E4C173400280FD020461F38007B000697
:101F600004D50B4880210078084301E00948007837
:101F7000FFF7B0FF012004E0FFF794FA002803D038
:101F800000202073FFF78CFF10BD00000216002018
:101F9000CA660000CB66000070470000F7B5074630
:101FA00082B0002000903807860E3348F5002818CC
:101FB00001904488002F15D130484078002809D07E
:101FC0007008012181402D48143002F088F900206A
:101FD00005B0F0BD2848405D8006000F0D2801D1F6
:101FE000012000900498A04206D2FF22EE3224A1E4
:101FF000002000F01BFC049C1F4A0020B10160324D
:10200000891803E0039A0B5C1354401CA042F9D3D7
:102010001A48801CC15D0198174F41801748760807
:102020004069795DF040C0074906C00FC90F88427A
:102030000FD10398C17982790802009910430029D1
:1020400001D000280CD001210C48B140143002F01E
:1020500046F90A484069F040C00708D0C82007E0A8
:1020600006480121C943143002F021F9F1E7882024
:1020700078552046ACE7000000120020C8F2FF1F90
:102080002866696C6529000010B5FFF73DFA10BDA0
:10209000FEB5574A574D1078574CC006C00E02D0B7
:1020A00001287CD18CE05549D0780B785149544EA9
:1020B000544FC978062810D006DC012809D0022820
:1020C00015D003286BD14FE0072832D00F2866D1F6
:1020D00066E04D482060122070E0002B5FD00029A0
:1020E00003D04A4820600A2068E04948FAE7002BFC
:1020F00001D1012979D00220002904D000977870FD
:10210000002092780DE000967070F9E700990B7846
:10211000002B05D0CB788E781B02334359180091E1
:10212000401C8242F2D10098017800295DD02060E5
:1021300040E0002B59D00720002904D00096707091
:10214000002092780DE000977870F9E700990B78FD
:10215000002B05D0CB788E781B02334359180091A1
:10216000401C8242F2D1DEE72A4800909078032892
:1021700001D0002009E001F019FD0DE000990B7875
:10218000002B01D059180091401C91788142F5D163
:1021900000980178002928D0206000780EE024E023
:1021A0001D48007800281FD01C480090206001784E
:1021B00000291AD0C178827808021043019005E006
:1021C00001A9684600F02EF800280DD0A1880198DA
:1021D000814208D980B21249A0800978491E08427C
:1021E00001D1012028710120FEBD0020FEBD0000AC
:1021F00014F3FF1FF8F2FF1F0CF3FF1FC766000068
:10220000F00F0020C4F2FF1F346700004767000092
:10221000466700004A670000C86600004867000083
:10222000C96600000020704770B51D481D4B00783E
:10223000C106C90E0AD01D461948143D1A4C6A78C9
:102240000079012906D0022928D10AE015480E3864
:10225000186021E0002A21D0A97888421ED20020EF
:1022600016E08F210840010605D50607360F01212B
:102270000904B14001E001218140002A01D1000799
:102280000CD1A868084209D0E868084000D00120B5
:102290002070000A60701C60012070BD002070BDBD
:1022A00014F3FF1F0CF3FF1FB810002070B5274B6D
:1022B000024618781946C0064988254EC00E04D03B
:1022C00001282BD0022829D111E0012926D102248E
:1022D000002A05D0012000F061FAF088204304E0D4
:1022E000002000F05BFAF088A043F0802CE01C791D
:1022F0008F200440200605D52007000F01252D045E
:10230000854001E00125A5407078002806D020070F
:1023100004D0B068284201D0002901D0002070BD4F
:10232000002A05D0204600F0FDF9F06828430AE0B5
:102330003069284208D12046FEF738FD2046FFF7D5
:10234000A3FEF068A843F060012070BD14F3FF1FE6
:10235000F8F2FF1FF8B55A4800260178C906C90EE1
:102360007ED1574F80781C3F00287AD0554801789D
:102370003846C078002901D1012871D0002801D049
:10238000514C70E0514C6EE06078022805D0042872
:1023900047D0052847D0072860D14948617980781F
:1023A000814239D178702079B8704A490020484A72
:1023B0000B8802E000211154401C9842FAD30125F9
:1023C0000120B968A840084202D02846FEF754FD13
:1023D00001200004B968A840084204D028468021A2
:1023E0000843FEF749FD6D1C102DE9D33A48B8604B
:1023F0000020F86038613D460120FEF7F5FCE079E9
:10240000400604D5E98801200143E98026E0E888F8
:1024100040084000E88021E0E078A178000208430D
:102420001DE0E6781AE0002E18D1A5788F2005402F
:10243000280605D52907090F01200004884001E07E
:102440000120A840B96801432046B960FEF7BCFCF2
:102450002846FEF723FD284600F020F9207801E009
:102460002AE004E00419207800288DD11FE000251F
:1024700001247D7080260120B968A040084202D066
:102480002046FEF7F9FC01200004B968A04008428C
:1024900003D020463043FEF7EFFC641C102CEAD337
:1024A000FD600D483D61B8600020FEF79DFC0448CA
:1024B00079788078884201D00020F8BD0120F8BDED
:1024C00014F3FF1FC7660000C4F2FF1FF00F0020C7
:1024D000C6F2FF1FBCF2FF1F01000100F0B585B07E
:1024E000002745480397019700783E46C006C00E76
:1024F00001287ED140491C394878002876D0002038
:1025000002903E4802780846C078002A01D101288E
:102510006FD0002801D03A4C64E03A4C62E0607819
:10252000022805D004280ED005281ED0072857D130
:10253000314861791C384078814251D0E078A178E7
:10254000000208434DE0A778E678002001902A4871
:102550000179B94244D18078B04241D10120029042
:102560002948C15D0391C6553AE023490879B8422C
:1025700036D1A0788F22104000900006009804D534
:102580000007000F01252D0400E001258540887813
:10259000B04214D118481C38816829438160C16851
:1025A000A943C1602046FEF70FFC0098FEF776FCB9
:1025B000009800F073F801982843019010E0039808
:1025C00086420DD1019828420AD10B481C388168F7
:1025D000A9438160C168A943C1600098FEF74CFC23
:1025E000207804192078002899D1029805B0F0BD10
:1025F000FFE70020FAE7000014F3FF1FC7660000A2
:10260000C4F2FF1FF00F0020C6F2FF1F70B50120BB
:102610001C4900060860BFF34F8FBFF36F8F012086
:10262000194D0024810049190C70401C1028F9D361
:102630000D211648FDF7D6FE154816498460C46082
:1026400004610470447040224A800A4660324A6045
:10265000C8220A700C720A46E032CC614A610D2130
:1026600029700D49416108484038017D022211431B
:102670000175FF210170017201730476182000F0CA
:10268000C9F870BD80E100E0C0200740601500205F
:10269000C8F2FF1F0012002055555555F8B50546E4
:1026A000154F2C073E4600060121603E240F0028EE
:1026B0000EDA6000401C8140104801F004FE200248
:1026C000C11960018019803141610021C161F8BDEB
:1026D00068008140C943094801F0E9FD07486101EC
:1026E0001238425D881942802202D2194260882243
:1026F000725400210172F8BD60120020DCF2FF1F4D
:1027000002480179DF2211400171704780200740A3
:10271000002903D140060249400E087670470000A8
:10272000802007400007810E034808180178022224
:102730001143017070470000C020074010B5082207
:1027400002490020FFF72AFC10BD000014F3FF1F10
:1027500010B5034801214902806801F0DFFB10BD7C
:10276000F4F1FF1F10B500221146802000F018F888
:1027700010BD000010B50348034902780020FFF7A0
:102780000DFC10BDC9660000B81000200248017998
:1027900020221143017170478020074070470000DC
:1027A000F8B50007114F840E1646A41CE200D0199C
:1027B00046803D460023A0016035451902E0C85C13
:1027C000E8545B1CB342FAD3094960084969C14027
:1027D000C90701D0882100E0C821B95401218140F6
:1027E0000348143001F07BFD3046F8BD0012002094
:1027F000C8F2FF1F0020704730B47446641E25786D
:10280000641CAB4200D21D46635D5B00E31830BC24
:1028100018470000002805DBC106C90E01208840CA
:10282000014908607047000000E100E0F8B5164675
:102830000F4600281BD1EFF31080C507ED0F72B6CD
:1028400000231A461946184600F06CF9040003D11B
:102850003146384600F0C6F9002D00D162B6002C92
:1028600005D1EFF30380C00601D103F0F7F8F8BDFE
:1028700010B528220D490E48FDF768FC03F0AEF9AB
:102880000C4803F0A5F903F00BF80B49012208608E
:102890000A4952020A600A4A012111600949400AA4
:1028A00008600A490848086010BD00008C620000FA
:1028B000E4FFFF1F1D30000050F3FF1F2CF3FF1F2C
:1028C00030F3FF1F34F3FF1FE4FDFF1F38F3FF1F3A
:1028D000044841788078814201D00120704700206F
:1028E0007047000084F2FF1F30B50546EFF31080FB
:1028F000C407E40F72B6284600F007F8A968081A62
:10290000401E002C00D162B630BDEFF31081CB0722
:10291000DB0F72B606C808388A4201D3501A02E0AB
:1029200080681018401A002B00D162B67047000072
:1029300070B50446EFF31080C507ED0F72B603CCF7
:10294000083C884201D0012000E0002042220DA175
:10295000FFF76CFFE16820680E5C401C2060A168F6
:1029600088420AD3884201D1012000E0002047229A
:1029700004A1FFF75BFF00202060002D00D162B6AC
:10298000304670BD2866696C6529000070B5044644
:10299000EFF31080C507ED0F72B66268E0688154EE
:1029A0006068401C6060A16888420AD3884201D1F7
:1029B000012000E00020302209A1FFF737FF0020AE
:1029C000606003CC884201D0012000E00020352265
:1029D00003A1FFF72BFF002D00D162B670BD0000F0
:1029E0002866696C65290000F8B514460E4607464E
:1029F000FFF77AFF844200D220460546002404E017
:102A0000315D3846FFF7C2FF641CAC42F8D328465C
:102A1000F8BD10B500F050FC10BD10B500F04CFC36
:102A200010BD002070470120704700207047000053
:102A3000F8B58D212648FDF7D3FC8D272548FDF7F5
:102A400032FD234C244E234D4034B04213D16879DB
:102A50002A79010211438D2901D20A4600E08D2214
:102A60008D2901D90F4600E08D271A491848FDF736
:102A700051FC0020E0718D211648FDF7B1FC15498D
:102A80003046FDF7B1FC2F71390A697110494122B6
:102A9000C91DE81DFDF73EFC607A227A01020D484F
:102AA000114340300172090A4172A17A8172E17AC0
:102AB000C1728A0006490C304C31FDF72BFC0448EA
:102AC0008030017B03488030017300F0C3F8F8BD0B
:102AD0006D150020002F0020646C766B10B5094C3A
:102AE000E17A102901D3002010BD064A8900403A3E
:102AF00089184C31FDF778FCE07A401CC0B2E072D6
:102B000010BD0000402F002010B541210448FDF702
:102B100067FC03480021393001724172C17210BD57
:102B2000072F0020FFB581B01D4616460F461A48F4
:102B3000FDF772FB441C0198002802D03946FDF7CE
:102B40004FFC0020002E00D03080002D00D02870D7
:102B50001149C91FC87900281BD0BC4201D82246A0
:102B600002E0E01B41183A460B4C0198C91D39346C
:102B7000002804D0607A237A000218433080002EA7
:102B800002D00198FDF7C6FB002D01D0A07A287075
:102B9000012005B0F0BD0000072F00200148007B98
:102BA00070470000802F00200549CA7A002A04D00F
:102BB0000A460C320260C87A704700207047000055
:102BC000402F002002488079002800D00120704763
:102BD000002F002002488079002800D00120704793
:102BE0006D150020F3B581B00746FDF715FB124DBA
:102BF000441C41263146E81DFDF7F2FB412C02D86A
:102C00003946224602E0413CE1193246E81DFDF713
:102C100081FB094C029840342072000A607200F077
:102C200092F8002801D0012004E000F08EF800287E
:102C300000D00220A072FEBD002F002001490873C1
:102C400070470000802F0020014988717047000004
:102C5000002F00207047704770477047F8B5002478
:102C6000E4430F460646002512E0705D082101F09E
:102C700023FD000644400A490820002C02DA6400C3
:102C80004C4000E06400401E0006000EF5D16D1CB3
:102C9000BD42EADB2021204601F00EFDC043F8BD15
:102CA000B71DC104F8B50E4617462021C04301F0F8
:102CB00003FD0446002512E0705D082101F0FCFCD4
:102CC000000644400A490820002C02DA64004C4007
:102CD00000E06400401E0006000EF5D16D1CBD42F0
:102CE000EADB2021204601F0E7FCC043F8BD0000EC
:102CF000B71DC10470B514460D460646FF2A07D815
:102D0000FF22DE320AA10020FFF790FD022070BDF5
:102D100000F0B0FC002801D0102070BD2A462146EA
:102D2000304600F0E5FD0028F7D01F2070BD000000
:102D30002866696C65290000C1060007000F00299C
:102D400000DB09307047012070470020704710B544
:102D500000231A4600F0D4FA002800D0012010BD4C
:102D600010B502F0B9FC012800D0002010BD000011
:102D7000F8B5164E01247F253078E403AD02012812
:102D800006D0FF22383212A10020FFF74FFD0AE0E3
:102D9000B0780227002808D0FF223E320CA1002084
:102DA000FFF744FD37700220F8BD204600F014F80C
:102DB000002802D037702120F8BD0120800224189D
:102DC000AC42F2D30120B0700020F8BD60F2FF1FCA
:102DD0002866696C65290000F8B52D4E04463078E8
:102DE000012805D0FF222BA10020FFF71FFD1AE0CC
:102DF0000127BF0239462046FDF766FB0225002960
:102E000002D0FF22083209E0F07800280DD0F168E6
:102E1000B0684018A04208D0FF220F321DA1002048
:102E2000FFF704FD35700220F8BD0121C90301221E
:102E30008C4201D2002000E01046002824D0F2701D
:102E4000F7607F200F468002B460BC4201D3844209
:102E500001D322200DE0FFF778FF0146252000294D
:102E600007D0BC4205D1FF22384601323946FFF770
:102E700041FF252803D00028D6D03570F8BD204664
:102E800000F0F8FB0028F9D035702020F8BD0000D4
:102E900060F2FF1F2866696C65290000012080022E
:102EA0007047000010B5272804D206498000085852
:102EB000002805D1EC2204A10020FFF7B7FC04A0F4
:102EC00010BD0000B06100002866696C6529000033
:102ED0000000000001460120272901D20148405C82
:102EE00070470000A8F1FF1FF3B581B004460090C1
:102EF00000E0641C2078402802D00028F9D164E06A
:102F00006078622848D012DC522854D008DC42286D
:102F100042D0442849D0482841D04D2817D134E028
:102F200054283FD0552833D0562810D140E072287D
:102F300041D006DC642838D0682830D06D2806D10E
:102F400023E074282ED0752822D0762830D020A5F2
:102F50002046FDF761F907462846FDF75DF906466C
:102F6000A019029B009AC119D218891E91422BD236
:102F7000BA1EA11CFDF76FFA324629462046FDF71E
:102F8000C9F920780028B5D11FE000F003FE01E068
:102F900000F008FE0546DBE700F0AAFDFAE700F0C6
:102FA000D7FDF7E700F0FAFDF4E700F0CDFDF1E71B
:102FB00000F000FEEEE70848807A002802D0064DB7
:102FC0000A35C5E705A5C3E7E4190098201AFEBD38
:102FD0004552524F520000004A61000068747470FC
:102FE000733A2F2F6D6265642E6F72672F6465765A
:102FF0006963652F3F636F64653D40553F76657239
:1030000073696F6E3D40563F7461726765745F69A6
:10301000643D40540000000070470000F8B51E46B3
:1030200015460C46074602F08BFE2C480178032912
:1030300012D001462039022C0FD0002C1FD0012CB9
:103040000AD10A68AA4207D18078002833D000202C
:10305000421E08608A608861F8BD0868A842FBD1FA
:10306000304602F0F5FB0446304602F0F7FB064618
:10307000384601F041FD03462246314617E0384606
:1030800001F03AFD0328E7D0304602F0DFFB80076D
:10309000E2D4384601F030FD0746304602F0D8FB56
:1030A0000446304602F0DAFB01463B4622462846FB
:1030B00001F094FEF8BD0948282209492038FDF79F
:1030C00045F801F07DFD07488178012903D1417859
:1030D000022900D1817001F07DFDF8BD04000020BF
:1030E0008C62000084F2FF1FF7B51C4E0446B078D6
:1030F0005502174600280BD12946019801F0D0FC53
:10310000032802D0214601F02DFEB078002812D00D
:10311000124920394868A0420DD8C868A0420BD097
:10312000A04208D90869401C00D10C610869A0427E
:1031300000D204460C61FEBDC8692A468018C861E9
:10314000E019C860F078002803D0002001F080FE6C
:10315000FEBD2046019901F0C7FDFEBD0400002020
:10316000F0B585B018A1096804910378002104AA7C
:10317000545C9C4226D0491C0329F9D313A10A6848
:103180008E6896464A68CD6800239446C25C7146B4
:1031900064466F46039552C711466139192911D902
:1031A000202A01D2052A0DD100216C46675C974286
:1031B00008D0491C1029F9D35B1C0B2BE6D3012046
:1031C00005B0F0BD0020FBE7E5002000222A2B2CF3
:1031D0002E2F3A3B3C3D3E3F5B5C5D7C70B5044628
:1031E000204600F01AF80546002D00D070BD0449B5
:1031F00002480968884700BFF8E700000C3000F07B
:10320000B8F2FF1F01680122920211430160BFF36F
:103210006F8FBFF34F8F70477047002807D0C0698A
:10322000002802D00068022803D06D2070470420D7
:1032300070470020704710B5002806D05B1E194269
:1032400001D11A4203D0652010BD042010BD0368CF
:103250008B4204D8406889181818884201D2662029
:1032600010BD002010BD00000349884201D06B2032
:1032700070470020704700006B66656B10B50C4C02
:1032800070212170FFF7C9FF002807D109492046A6
:10329000096888472078810601D5672010BDC106DE
:1032A00001D5682010BDC007FCD0692010BD00000A
:1032B00000000240B4F2FF1F70B50E4D00202C78C4
:1032C000002C0FD000212970A978002901D000F02E
:1032D000D9FA022C05D06978032902D0002800D140
:1032E000242070BDFF22443203A10020FFF79EFA84
:1032F000022070BD30F2FF1F2866696C652900004E
:10330000FEB51C460546302901D3012000E000200F
:10331000412217A1FFF78AFA29460C22203168467C
:10332000FCF7F8FF144E002C01D100203071134936
:10333000019888420BD112490098884201D102209D
:10334000FEBD0F49FC3988420FD10120FEBD284641
:1033500002F05CF9002804D0002C04D10120307167
:1033600001E0002C01D00320FEBD0020FEBD0000C6
:103370002866696C6529000030F2FF1F0199969755
:103380008F9E939BFFB581B0064600240498254686
:10339000002813D00A98002810D004990020086053
:1033A0000A9907460860FFF7CEFC002812D00120DA
:1033B000C003022E04D0032E0AD03FE06B2253E05C
:1033C0000399002904D00299814201D01B2436E0E0
:1033D000074610E0FFF7B9FC00282FD0012E02D0DD
:1033E000032E0AD02AE00398002804D0029800286F
:1033F00001D01A2423E01F4819E01F48FDF753F8B5
:1034000000281BD005460C3506E028460830FDF79D
:103410004AF801280DD014352846FDF744F8002855
:10342000F3D1281DFDF73FF80028EED113480568B9
:1034300005E02846FDF737F80746F7E71C24FFF7B5
:10344000F2FA002801D1012E04D0002C04D020462D
:1034500005B0F0BD1C24FAE7002D04D004980760E5
:103460000A980560F3E7AD2205A10020FFF7DEF919
:103470000220EDE7886200003A610000606200000F
:103480002866696C65290000F7B51E49064648782C
:103490000025012804D0022805D0032830D105E0FA
:1034A0000125ED0326E07F25AD0223E00879002801
:1034B00026D01548FCF7F7FF002821D004460C342D
:1034C0000CE0B74209D8201DFCF7EDFFB04204D351
:1034D000201DFCF7E8FF05460AE014342046FCF7FF
:1034E000E2FF0700EDD1201DFCF7DDFF0028E8D149
:1034F000002D05D002983018A84201D30120FEBD4E
:103500000020FEBD30F2FF1F3A61000010B50D4CE7
:103510002078002806D0BC220BA10020FFF786F9F6
:10352000022010BDFF2230210948FCF734FF0120A2
:10353000207000206070A060E0602061A070E070EA
:1035400010BD000030F2FF1F2866696C652900007D
:1035500068F5FF1FF7B5434F0646387884B0154627
:10356000012807D0D12240A10020FFF75FF90220F7
:1035700007B0F0BDF878002803D1FE6001203E615D
:10358000F870B878002857D139698E4201D10120EE
:1035900000E000204919396100282FD0B868302197
:1035A0000C1AAC4200D91446314922460818059934
:1035B000FCF7B0FEB8682D1B0019B86005993619E4
:1035C0000919059130282AD316D00020F32226A10C
:1035D000FFF72CF901232648FA68B968FFF790FE37
:1035E000787001A8009002AB01227878F968FFF7A3
:1035F000C9FE002827D103E00120E7E70320EFE719
:10360000B8780124FF2260400D3217A1FFF70EF9B0
:10361000019800F0E5F8002815D1BC7002E0B878F8
:10362000002813D01249BA68F86800F04BF8002857
:1036300009D1B878002809D02A463046059900F00B
:1036400041F8002802D00321397091E72A4630461C
:103650000599FFF719FF00288AD00220387013203F
:1036600086E7000030F2FF1F2866696C65290000BC
:1036700068F5FF1F10B5EFF31081CC07E40F72B6A9
:10368000FDF72CF8002C00D162B610BD70B50E46C7
:103690000500144613D020211046FCF7A3FE266037
:1036A000E8686060A9686868FCF70EFFA060042005
:1036B000E06020616061A061E061002070BD0420D5
:1036C00070BD0000F7B5424E04467078002582B008
:1036D0001746012807D078223EA10020FFF7A6F860
:1036E000022005B0F0BDF07800280AD1204601F094
:1036F000C1F8050002D00220707066E00120F07071
:1037000074613348816820460091FCF7DDFE304843
:10371000661A009940690090FCF7D6FE0098401A9E
:10372000864208D0204600F0F7F8050003D028496B
:103730000220487049E02648016920460091FCF7C4
:10374000C3FE2348661A009940690090FCF7BCFE4E
:103750000098401A864204D0204601F08BF80500FC
:10376000E5D11B4EB16870684018A04204D82046CD
:1037700000F0D2F80500DAD1002F24D03169F068CA
:103780004018A04204D8204601F074F80500CED1BC
:103790000F4948688968201A0E1AB74200D23E467F
:1037A0000E49324608180399FCF7B4FD002E08D0E4
:1037B00000200749A419887003988019BF1B039043
:1037C000CFE70120F5E702484461284689E7000079
:1037D00044F2FF1F2866696C6529000098F5FF1FF9
:1037E00070B5244D04466878002801D044222FE0AB
:1037F000002C2CD06068002829D0A068002826D092
:10380000E068002823D02069002820D060690028C3
:103810001DD0A06900281AD0E069002817D0012126
:10382000FF2289021448FCF7B6FD0126AE70002085
:10383000E8706860A860E8602861AC616861206831
:103840008047040009D12878002807D010E04A22D8
:103850000AA10020FEF7EAFF022070BDA8690069F6
:103860008047040004D0A86940688047204670BDA6
:103870006E70FBE744F2FF1F98F5FF1F2866696C26
:103880006529000070B5164C00256078002802D02C
:10389000012807D00AE0C92212A10020FEF7C6FFC6
:1038A000022070BD002000F037F80546A06940688E
:1038B000804706460121FF2289020C48FCF76BFD78
:1038C00001200021A070E1706160A160E1602161D0
:1038D00061616170002E01D0304670BD284670BD18
:1038E00044F2FF1F2866696C6529000098F5FF1FE8
:1038F00010B5EFF31083DC07E40F72B6FDF7FAF8AA
:10390000002C00D162B610BD80210170017809063B
:10391000FCD570477047000070B50E4D0646A8787C
:103920000024002808D1A8690B498368AA68686840
:10393000984704460120A870FF220748A968FCF7B1
:103940002AFD3046A968FCF7BFFD701A6860204662
:1039500070BD000044F2FF1F98F5FF1F10B5074827
:10396000FCF7A1FD002805D0FF309D30FCF79BFD42
:10397000002801D101480C3810BD00003A61000058
:1039800010B50948FCF78FFD002806D0FF30A130A4
:10399000417802780802104305D103481038C178F5
:1039A00082780802104310BD3A61000003460122EC
:1039B00001490020184700000C000020024800695F
:1039C0008007C017401C704740F00F400020704730
:1039D00008B51A48816B1F225202114381631849AE
:1039E0008015086108610861164A506088600020EF
:1039F00000F038F8002000F02BF8002000F03CF830
:103A000011480168042319430160426910210A43E7
:103A1000426142690A43426142690A434261416923
:103A2000194341610848803841690222914341614C
:103A300006480090401E0090FCD108BD0080044064
:103A400000C0044000A00440C0F00F4040420F00FE
:103A500010220349012801D04A6070478A607047EC
:103A6000C0F00F4010220349012801D04A6070477E
:103A70008A607047C0F00F4010220349012801D02E
:103A80004A6070478A607047C0F00F40092800D92B
:103A900027303030C0B2704710B50F4900200860A1
:103AA0000E4908600E4908600E4908600E49FFF78C
:103AB000D5F80949086001200C49C003FFF7CEF88A
:103AC0000649086001217F2089028002FFF7C6F8BD
:103AD0000449086010BD0000D4F1FF1FD8F1FF1F9A
:103AE000DCF1FF1FE0F1FF1FFC7F0000FC7B010009
:103AF00000487047E4F1FF1F01200021096A054AD0
:103B0000914200D000200021496A034A914200D02E
:103B100000207047939D939B0199969700B5FFF7FE
:103B2000EBFF002800D100BD0020806AFBE7000009
:103B30000148006870470000D4F1FF1F0148006889
:103B400070470000D8F1FF1F00487047F4F3FF1FD3
:103B500000487047B2F3FF1F0120C103096A064AFB
:103B6000914200D000200121C903496A034A9142D1
:103B700000D00020704700008F9E939B019996977C
:103B800000B5FFF7E9FF002800D100BD0120C00308
:103B9000806AFAE700487047A5F3FF1F00487047A6
:103BA000D3F3FF1F0048704774F3FF1F00487047AE
:103BB000FDF3FF1F00487047EEF1FF1F10B5FFF740
:103BC0006BFF054800F00EFD00F0A2FD00F0FAFECC
:103BD00000F0CCFE10BD000054F3FF1F10B5134CD5
:103BE0002078002806D0622211A10020FEF71EFED8
:103BF000022010BD002211461046FCF763FF00288A
:103C000001D01D2010BD00206070A070E070A06089
:103C1000E0602071206160610121A0618902064895
:103C2000FCF7DEFB01202070002010BD60F2FF1FBA
:103C30002866696C6529000098F9FF1FF7B50446EE
:103C4000324801277F250078FF03AD0282B00128AA
:103C500008D0FF227A322EA10020FEF7E7FD0220D5
:103C600005B0F0BDBC4201D3AC4201D32220F7E73E
:103C7000FFF76BF8002847D02E1B0499301F8842AD
:103C800001D90A4600E0321F204803998069FFF7F6
:103C900009F81E498861009021208002844208D2E0
:103CA0001D49E01B0818049A0399FCF733FB002018
:103CB000D6E704982018A84226D103988519281F12
:103CC000FCF7F1FB0102203DE87F090A00060143F1
:103CD00000980E4D884201D02620C1E72046039A65
:103CE0000499FFF705FE002801D01F20B8E7012244
:103CF000920209493846FEF7FDFF0446FFF7CCFE65
:103D0000012068702046ABE72520A9E760F2FF1F7D
:103D10002866696C6529000098F9FF1F00F0F6FC21
:103D2000FFF756FEFEF784FEFFF750FE002823D172
:103D3000FFF744FE00281FD114480446FCF7B3FBEC
:103D4000002819D00C30FCF7AEFB01F05FFC002816
:103D500012D0FEF73FFF00280ED12046FCF7A3FB50
:103D60000C300446FCF79FFB094988602046FCF7AD
:103D70009AFB03C8FCF7E8F900F0C0F800221146EE
:103D8000044800F0D8F800F0BEF8FEE73A61000001
:103D900000ED00E0A93D0000024901220A704870D0
:103DA00070470000F4F1FF1F0125FEF713FF002804
:103DB00002D0642000F09DF800F0BBF8414FB860DD
:103DC0000020FFF74FFE0020FFF742FE2846FFF7D6
:103DD00053FEFFF7F3FE01F02DFB012001F058FE2A
:103DE000002001F023FB0020F870F8600120B8707B
:103DF000002301460B241A46334800F0A1F80321A2
:103E000000F0A3F80022D2430021304800F08DF8E2
:103E100086B2B00501D5FDF789F9F00734D05A20F4
:103E200001F04EFEF878012807D1F868002802D08A
:103E3000401EF86001D10020F870B878002821D029
:103E400001280FD0032817D004281DD1F8780028A6
:103E50001AD1002C01D0641E16D1002001F0E6FA20
:103E6000002007E0002C01D0641E0DD1012001F0DC
:103E7000DDFA0320B87007E001F0D0FA002803D083
:103E80000220F7E7FCF7BEFEB007BBD53878002864
:103E9000B8D07878012808D0022806D00125002063
:103EA00038702846FFF7E8FDACE7012D01D0012569
:103EB00000E00025002DF4D00128F2D10020387058
:103EC0007870EEE7F4F1FF1FBD4C00000302000024
:103ED00010B5FFF71BFB10BD10B5FF2104460231E2
:103EE000FCF77EFA00F0FCFB00202070FFF70EFBD1
:103EF00010BD10B500F0CAFE002010BD10B500F0D6
:103F00008FFE002010BD10B500F0B6FE002010BDE1
:103F100000207047002070470020704710B50C4605
:103F2000084600F05FFE204610BD10B500F064FEAC
:103F300010BD0120704710B500F098FE012010BDA3
:103F400010B500F08DFE012010BD10B5084600F040
:103F500061FE002010BD0000FFB583B00546049847
:103F60000E9C281800900020854F2060F878854E20
:103F700000281BD00020F870701E0278011D0698E2
:103F8000FCF7C8F9701E007806994118069121685F
:103F900008182060786871783278000C09020004F3
:103FA00011430843711E097840187860CCE02878E6
:103FB0000A2829D00D28FCD03A281CD039780029AD
:103FC00076D0FEF7B9FE02076E497878491E0B5C81
:103FD000120F1A430A54401CC0B27870097802913B
:103FE000491D884263D3674A0021521E1378084650
:103FF0005B1D9C460EE063482521401EFCF7F0F94E
:10400000002038707870B8709DE0135C5918401C1F
:10401000C9B2C0B28445F8D8002901D0042698E07E
:10402000B878002843D10120B87070783178000248
:10403000084340BA3070010A717001905148401E27
:10404000C078002806D0012833D0022833D00428B5
:1040500074D14BE04B492522491E8818FCF75AF9C8
:104060007868019A010C09041143814203D00120B0
:10407000F87002266DE04349029AC91C0698FCF7C5
:1040800049F940480699401E007841180691216878
:1040900008182060786871783278000C09020004F2
:1040A000114308433749491E09784018786045E0B4
:1040B0003AE001264DE021680C98FF22411A06984B
:1040C000FCF769F920687968091A0D980160009871
:1040D000411B0498411A059801602A48401E017945
:1040E000407909030001014379601AE021680C98C6
:1040F000FF22411A0698FCF74EF920687968091AE0
:104100000D9801600098411B0498411A05980160C0
:104110001C48401E417902790802104340BA00044D
:104120007860022007B0F0BD7978252925D2FEF706
:1041300003FE144900017A78491E88543878002813
:104140001BD0002038706D1C0098854200D02EE7EF
:10415000002621680C98FF22411A0698FCF71BF9EB
:1041600020687968091A0D9801600098411B04982D
:10417000411A059801603046D4E70120E2E70000CB
:104180007CF2FF1F99FDFF1FF7B504467F2084B026
:104190008002424F029038781646012805D0A222AC
:1041A0003FA10020FEF742FB41E0FF2101318800E2
:1041B000009001912046FCF787F90225002901D0E3
:1041C000AB222FE00198864205D301463046FCF72A
:1041D0007BF9002901D0B22224E020460099FCF7A7
:1041E00073F900988919814201D9B9221AE0B87887
:1041F00000280DD1F878002808D0B9688C4203D384
:10420000F8680818A04203D8C7220BE0C12209E0D1
:104210003979384600290DD07A6939698918A1425F
:1042200008D0CF221EA10020FEF700FB3D70022027
:1042300007B0F0BD0121C903A7198C4203D2002F9A
:1042400001D0002100E00121002910D013480121F4
:10425000017146610461324620460599FFF7EEFC84
:10426000252807D00028E3D00C490D70E0E7057041
:104270001F20DDE731462046059AFFF739FB00286D
:1042800001D00648F3E70298874204D3FFF704FC05
:104290000249012048700020CAE7000060F2FF1FB9
:1042A0002866696C65290000FF2001307047EFF334
:1042B0001082D207D20F72B603680B400360002A47
:1042C00000D162B67047EFF31082D207D20F72B6F8
:1042D00003680B430360002A00D162B67047EFF316
:1042E0001082D207D20F72B603684B400360002AD7
:1042F00000D162B67047000070B514460E46054600
:104300000019012140028902884207D999229200AE
:104310000AA10020FEF78AFA002070BD012149029F
:104320003046FCF75DF8002D06D1064806490069C5
:1043300042013046FBF7EEFF600270BD2866696CF3
:10434000652900009CF2FF1F1007002010B5012412
:1043500064020B46002801D0002010BD224603490C
:104360001846FBF7D7FF204610BD00005004002080
:10437000F8B50C4600210E460091002801D000201F
:10438000F8BD31480078012842D0022842D00027E9
:1043900020462EA101F0F6F8054660192EA101F085
:1043A000F1F8451960192E4901F0ECF8451960192A
:1043B0002CA101F0E7F8451960192BA101F0E2F8F2
:1043C000214945196019498801F0E5F84519601936
:1043D00024A101F0D7F84519002F0ED0601924A1AF
:1043E00001F0D0F845196019394601F0CBF84519AC
:1043F00060191CA101F0C6F845196846FEF7D4FB08
:1044000007001FD0009800281CD060191BA10EE0E7
:104410001DA7BDE71FA7BBE7B0000099761C095890
:10442000F6B2601901F088F8451960190DA101F084
:10443000A9F84519BE4205D2284601210A30490291
:104440008842E9D32846F8BD94F2FF1F4173736593
:1044500072740D0A0000000046696C653A20000085
:104460000C0200200D0A00004C696E653A20000025
:10447000536F757263653A200000000048657864E8
:10448000756D70730D0A0000426F6F746C6F61641C
:10449000657200004170706C69636174696F6E00D1
:1044A00010B50A46002801D0002010BD01214902A4
:1044B000104600F093FD10BDF8B50D46044601F01E
:1044C000DFFA0646FEF7EEFC07463046FEF702FD31
:1044D0000646002C01D00020F8BD28461B4901F0FB
:1044E00051F804462819394601F04CF804192819E6
:1044F00017A101F047F8154904192819C91F01F03F
:1045000041F8041900270120009014E000980028C9
:1045100004D128190FA101F035F80419F00708D0CB
:104520000D49B8000958281901F02CF80419002089
:10453000009076087F1C002E01D0052FE6D32819A5
:1045400003A101F01FF80019F8BD0000BB620000D4
:104550000D0A00002C2000002464000070B50C46F9
:10456000002801D0002070BD01256D02294620469B
:10457000FBF736FF0648FBF74FFE0246044920468C
:10458000FBF7C8FE29462046FEF7AEFC70BD0000D2
:10459000C3620000F8B5094D06460F462846FBF7F2
:1045A0003BFE0446002E01D00020F8BD02462946FD
:1045B0003846FBF7AFFE2046F8BD0000E06F000074
:1045C00010B5012464020B46002801D0002010BD64
:1045D000224603491846FBF79DFE204610BD000009
:1045E0005002002004490A6A0260CA69426089696F
:1045F00081600021C16070474080044010B50846CA
:1046000054022146FBF7ECFE204610BD70B5234D49
:1046100000246878A978E443884201D0012000E0B2
:104620000020FF22F9321EA1FEF700F96878022867
:1046300004D0002816D0012818D020E01A48FF2402
:104640000078F53400281AD0012809D0022816D0A5
:10465000032814D0154A12A10020FEF7E7F80EE057
:10466000134C0CE0A878022808D008E0A8780228AB
:1046700002D0002802D002E00E4C00E00024601CB2
:1046800005D10A4A06A11032FEF7D0F80024A86826
:10469000A04201D9012070BD002070BD84F2FF1F2F
:1046A0002866696C65290000040000200A020000E9
:1046B000204E0000C409000070B5034600200246E9
:1046C000012509E0DC0704D08E1A2C46761EB44082
:1046D00020435B08521CD2B28A42F3D370BD000063
:1046E00010B525210748FBF77BFE0648252125301C
:1046F000FBF776FE04480021416001704170817033
:10470000C17010BD98FDFF1F7CF2FF1F70470000B5
:10471000F8B500250024FFF733F9064605214C487B
:10472000FBF760FE21214B48FBF75AFE21214A4846
:10473000FBF756FE09214948FBF754FE0521444882
:10474000FBF750FE00BF00BF0AE0454BAA00995896
:10475000404A101900F0F0FE0019C4B2681CC5B23E
:10476000042DF2DB00222146601CC4B239484254B9
:10477000002400250AE03B4BAA009958364A10193C
:1047800000F0DAFE0019C4B2681CC5B2042DF2DBD9
:1047900000222046611CCCB22F490A5400242F4924
:1047A00008193149096800F0C7FE0019C4B2204653
:1047B000611CCCB2294900220A54FFF7CFF8074602
:1047C000042239462248FBF7A5FD21490020087143
:1047D00000243104080FFFF759F901462246234807
:1047E000641C81543105080FFFF750F90146224639
:1047F0001E48641C81543106080FFFF747F9014633
:1048000022461A48641C81543007000FFFF73EF916
:10481000014622461548641C815400222146641C2E
:1048200042540024302221461148641C4254322252
:104830002146641C425435222146641C42543422D1
:104840002146641C425400222146641C4254F8BD97
:10485000E4F1FF1FB2F3FF1FD3F3FF1FF4F3FF1FB9
:1048600054F3FF1F64F3FF1FD0F1FF1FE9F1FF1F97
:10487000EEF1FF1FF1B5394DA869416900988847ED
:104880000746A8698169009888470446002F07D029
:10489000002C05D00126B602B74209D8012008E055
:1048A000FF2232322EA10020FDF7C0FF0220F8BD0A
:1048B0000020FF2237322AA1FDF7B8FF39463046E3
:1048C000FBF702FE002909D00020FF22383224A184
:1048D000FDF7ACFFBC4203D3012002E00120F4E766
:1048E0000020FF2239321EA1FDF7A0FF39462046E5
:1048F000FBF7EAFD00291AD00020FF223A3218A166
:10490000FDF794FF21460098FBF7DEFD0098401A62
:10491000E8602C616860B44200D33446AC60A96999
:10492000096A002905D0884704000BD101E0012065
:10493000E3E7287800280AD0A869C168E8688847B2
:10494000040004D0A869406880472046F8BDFF22D3
:104950000548A968FBF71FFD0020F8BD44F2FF1FC2
:104960002866696C6529000098F5FF1F70B5002561
:10497000002400261148FBF74FFCC6B27000801CD3
:10498000C2B221460E48641C425403222146641CD4
:10499000425400BF0EE00948611C425D2046CCB283
:1049A00007490A5400222046611CCCB204490A542B
:1049B000681CC5B2B542EEDB70BD000074F3FF1F8A
:1049C000FDF3FF1F10B531210948FBF70BFD094925
:1049D0000748FBF793FC08490548FBF78FFC07499C
:1049E0000348FBF78BFC06490148FBF787FC10BD29
:1049F00074F3FF1FE4F1FF1FE9F1FF1FB2F3FF1F84
:104A0000F4F3FF1F10B50A4C2078002808D000F0FE
:104A10005DF86068C168074888470021217010BDB3
:104A2000C02205A10020FDF701FF022010BD0000FB
:104A300004F2FF1F64F4FF1F2866696C65290000FB
:104A400070B5134C05462078002801D0852202E07D
:104A5000022D06D38B220FA10020FDF7E7FE0220D6
:104A600070BDFFF766FAFF21A06005310B48FBF728
:104A7000B9FC01200649207028010C314018606003
:104A80004168064888470028EAD00321217070BD9C
:104A900004F2FF1F2866696C6529000064F4FF1F9B
:104AA000F8B5094D0E460746002420012A58314624
:104AB00038469047002801D02046F8BD641CE4B277
:104AC000022CF2D30320F8BD10F2FF1F10B5FFF740
:104AD00030FA06498968884201D1012000E00020AF
:104AE000622203A1FDF7A2FE10BD000004F2FF1F29
:104AF0002866696C65290000014610B5083103225B
:104B00000C4608A0FBF7AAFB002807D00322214689
:104B100005A0FBF7A3FB002801D0032010BD012056
:104B200010BD000042494E004845580070B5154D73
:104B3000064628780C46012806D0A42212A100209F
:104B4000FDF774FE022070BDFFF7C0FF68682246C3
:104B5000836831460E4898470446132807D0142C22
:104B600007D0002C05D003202870204670BD0220FD
:104B7000FAE72878012800D00020B22202A1FDF730
:104B800055FEF2E704F2FF1F2866696C65290000F4
:104B900064F4FF1F10B5FFF7CCF906494968884255
:104BA00001D1012000E00020FF22693202A1FDF7BF
:104BB0003DFE10BD84F2FF1F2866696C6529000068
:104BC00010B503480021C068FFF7A2F910BD00002E
:104BD00084F2FF1F10B50248C068FFF79DF910BDB1
:104BE00084F2FF1F72B603494A6802434A6062B604
:104BF00070470000E0F2FF1F054903464A68134270
:104C0000FCD0486872B64A6882434A6062B6704710
:104C1000E0F2FF1F0149086170470000E0F2FF1F4A
:104C200030B50B490020086048608860C8600861A2
:104C300048610949074A4A61084A0724D3691B02A7
:104C40001B0A4D042B43D36188610C6130BD000009
:104C5000E0F2FF1FFE52070000E000E004ED00E07C
:104C60000149C86070470000E0F2FF1F0149486138
:104C700070470000E0F2FF1F03484169002901D09E
:104C80000020084770470000E0F2FF1F02498860DB
:104C900088680028FCD17047E0F2FF1F02480078C6
:104CA000012800D00020704760F2FF1F884203D324
:104CB000904201D8012070470020704770B5094C20
:104CC0000221A068FFF72AF9606803210546FBF777
:104CD000FBFB6D1C6560002903D10121A068FFF773
:104CE0001DF970BDF4F1FF1FF8B51B4C1546E078B7
:104CF0000E46002805D0194A19490020FDF796FDF7
:104D0000F8BDE8051ED00020144A1549121DFDF714
:104D10008DFDB122607892001149FDF787FD29468B
:104D20003046FFF703FF0027012613280CD0142874
:104D30000FD02771084920394A6952194A6100F099
:104D400087F8F8BD0120DFE7FFF75CFE6770E670CB
:104D500000E000202671EDE704000020BF02000003
:104D6000B84B0000F8B51A4C074660780D4600288D
:104D700012D00020A12292001649FDF757FD681CB1
:104D800000D00120144A1349FDF750FD104E203E7B
:104D90007068401C02D002E00120EBE77560E0790A
:104DA000032800D1E7717068A84202D1E079B842C7
:104DB00001D0032008E03846FFF742FE002803D167
:104DC0000121F5606170A17000F042F8F8BD0000AB
:104DD00004000020B84B00008502000070B5194C9B
:104DE0002578032D05D02546203D2E68002E07D0BE
:104DF00007E08D22920014A10020FDF717FD70BD81
:104E00002860A868401C00D1A960E079032800D17F
:104E1000E371A869904206D9E869904203D9002A53
:104E200001D003200BE0481C02D0A8688842F8D1CA
:104E3000032B02D0E0799842F3D10020AA6100F060
:104E400007F870BD040000202866696C6529000021
:104E5000FEB50546132803D0142D01D0012000E033
:104E60000020B922920045A1FDF7E0FC454C2078D6
:104E7000032810D02246203A1168002912D0D369A5
:104E8000906983420ED300280CD0936850689842F2
:104E900008D1012007E05D22D20038A10020FDF7F3
:104EA000C5FCFEBD00206071A3790193002902D1E9
:104EB000E179032901D0012100E0002100910028BF
:104EC00004D02179002901D0012600E00026E178F4
:104ED000002903D0002801D0012000E0002002902A
:104EE00010690027401C13D0264820384068401C19
:104EF00000D00120244A21A1FDF798FC2148203848
:104F0000426801694069891A4902884200D901272B
:104F10000320002D01D020701DE0019900290AD046
:104F2000002F01D00625F6E700990029F3D0002EC6
:104F3000F1D10425EFE702990029ECD1002E01D030
:104F4000022003E00098002802D00120207011E028
:104F5000207803280BD16078002806D0FFF752FD97
:104F600000216170002D00D10546084805700198A8
:104F7000002896D100F072FDFEBD00002866696C25
:104F800065290000040000200603000084F2FF1FD2
:104F900010B50F4C2078002807D000202070FDF7B6
:104FA00029FC002808D01E2010BD832209A1002062
:104FB000FDF73CFC022010BD6078002803D1FDF70E
:104FC000C2FE002801D0002010BD242010BD00002A
:104FD00060F2FF1F2866696C65290000F8B50F466E
:104FE0000446FBF7FDF9204686A100F0CBFA054602
:104FF000601991A100F0C6FA4519601992A100F05C
:10500000C1FA4519601994A100F0BCFA4519FDF7E1
:1050100008FD002801D094A100E094A1601900F0DF
:10502000B1FA4519601992A100F0ACFA451960195E
:1050300090A100F0A7FA4519FDF7F5FC002801D072
:1050400089A100E089A1601900F09CFA4519601956
:1050500087A100F097FA451960198CA100F092FA27
:105060004519FDF7E2FC002801D07FA100E07FA1F7
:10507000601900F087FA451960197DA100F082FAE5
:105080004519FDF760FE002801D086A600E088A63D
:1050900060198AA100F076FA45196019314600F0CE
:1050A00071FA4519601972A100F06CFA451960197E
:1050B000314600F067FA4519601984A100F062FAE0
:1050C0004519FDF740FE002815D1FEF715FD002813
:1050D00011D0601981A100F055FA4519FEF71EFDA7
:1050E00001466019042200F07CFA4519601960A19C
:1050F00000F048FA4519FDF728FE002815D1FEF703
:105100002BFD002811D060197AA100F03BFA451957
:10511000FEF736FD01466019042200F062FA4519D7
:10512000601953A100F02EFA4519601976A100F01C
:1051300029FA4519601977A100F024FA4519601978
:105140004BA100F01FFA451960197DA100F01AFA71
:1051500045196019012100F01EFA4519601944A192
:1051600000F010FA4519601979A100F00BFA451901
:1051700060197CA100F006FA451960193CA100F005
:1051800001FA4519FEF7B8FC002810D0601976A185
:1051900000F0F8F94519FEF7CBFC0146601900F064
:1051A000CBF94519601932A100F0ECF945196019E5
:1051B00072A100F0E7F94519FEF7C0FC014660193D
:1051C00000F0BAF94519601929A100F0DBF9451979
:1051D00060196FA100F0D6F9714945196019496845
:1051E00000F0D9F94519601921A100F0CBF9401957
:1051F00020186CA100F0C6F939462046FDF774FE70
:10520000F8BD000023204441504C696E6B20466974
:10521000726D77617265202D2073656520687474E6
:1052200070733A2F2F6D6265642E636F6D2F64610A
:10523000706C696E6B0D0A00556E69717565204959
:10524000443A2040550D0A004849432049443A2039
:1052500040440D0A000000004175746F20526573D0
:1052600065743A20000000003100000030000000AA
:105270000D0A00004175746F6D6174696F6E206175
:105280006C6C6F7765643A20000000004F766572A1
:10529000666C6F7720646574656374696F6E3A201D
:1052A00000000000426F6F746C6F616465720000F3
:1052B000496E746572666163650000004461706CDC
:1052C000696E6B204D6F64653A2000002056657250
:1052D00073696F6E3A2040560D0A0000426F6F747A
:1052E0006C6F616465722056657273696F6E3A20E7
:1052F00000000000496E7465726661636520566542
:105300007273696F6E3A2000476974205348413ABE
:105310002000000031366365316538643839313337
:1053200061323366646131353139616538643133F6
:1053300062633333633264376466356300000000B0
:105340004C6F63616C204D6F64733A200000000065
:1053500055534220496E74657266616365733A20E5
:10536000000000004D534400426F6F746C6F616425
:105370006572204352433A2030780000496E7465CC
:105380007266616365204352433A20307800000022
:1053900052656D6F756E7420636F756E743A200080
:1053A00094F2FF1F55524C3A2040520D0A00000063
:1053B00030B510A30ECB87B06C460EC400250C4848
:1053C00009226946FAF7A6FF0D48094C45700934D1
:1053D00018220CA16846FAF7B9FE17226946204642
:1053E000FAF798FFA57000F033F807B030BD000061
:1053F000F00F00200902200001010080FA000000E7
:10540000C4F2FF1F090400000208065004070582C9
:1054100002400000070502024000000002484078F8
:10542000002800D001207047F8F2FF1F10B5FBF7ED
:10543000DDFC10BD10B505490020C870FFF7B8FFAE
:10544000FCF7AAFDFBF73AFF10BD0000F8F2FF1FC2
:1054500010B5FEF76EFD074C60600020FEF75AFDA8
:10546000E060FDF705FA00206070A0700249A060BE
:10547000086010BD84F2FF1F20F3FF1F70B51446B3
:105480000D460646FFF786FB064B1868002807D036
:105490000120FEF781FC22462946304600F06AFBD7
:1054A00070BD000020F3FF1F70470000F8B51546DF
:1054B0000E460746FFF76EFB0D480068002816D021
:1054C0000C4900200C4C8860207803280FD0012064
:1054D000FEF762FC2A463146384600F0C9FC2078C7
:1054E000032804D02A4631463846FDF7FDFDF8BDB5
:1054F00020F3FF1F84F2FF1F040000200548074A25
:1055000001780548C180002101704170C16082604E
:1055100001617047C6660000F8F2FF1F010001003C
:1055200010B5EFF31080C407E40F72B6FDF7ECFA84
:10553000002C00D162B610BD70B50D460446090EB0
:1055400000F014F806462802010EA01900F00EF82B
:1055500086192804010EA01900F008F88619E9B28E
:10556000A01900F003F8801970BD00000B09044A6F
:105570000907D35C0370090F515C4170022070472A
:105580004C6200000346002001E01A54401C0A5CF3
:10559000002AFAD17047F3B581B0074600242546AA
:1055A000029805E00A21FAF78FFF0021641C4D41A3
:1055B0000028F7D12046284301D1012400250026E8
:1055C00009E00A210298FAF77FFFA21B3031521E30
:1055D000B954761C02900020311BA841F1D320461B
:1055E000FEBDF8B515460E460746FFF7D4FF044644
:1055F000A8420AD2302229463846FAF7CCFE281BA8
:10560000C0193146FFF7C7FF2846F8BDF1B530484D
:1056100082B00068002808D0016A002905D00298ED
:105620008847002800D00120FEBD2A480190FAF7E3
:105630003AFF04004AD000200425074600902A467D
:1056400068460299FAF766FED4340AE0201DFAF79C
:105650002AFF024631460098FFF728FB012832D086
:1056600014342046FAF71FFF0600EFD1201DFAF789
:105670001AFF0028EAD1002F28D024E00298002643
:10568000411904226846FAF745FE0198FAF70BFF24
:1056900004460C340AE0201DFAF705FF024639469D
:1056A0000098FFF703FB01280CD014342046FAF7CA
:1056B000FAFE0700EFD1201DFAF7F5FE0028EAD127
:1056C000002E03D02D1D0C2DD8D9ACE70020FEBD37
:1056D000A4F1FF1F3A6100000C490968002903D0BA
:1056E000496A002900D0084701783A290AD1007A8E
:1056F000302809D0322807D0332805D0342803D0E9
:10570000352801D00020704701207047A4F1FF1F09
:10571000FFB583B00398FDF723FDFF22973241A127
:10572000FDF784F841480190417A007A090201436B
:105730003E48C01E407B414306984018401EFAF781
:10574000C3FE054606980027394E002819D00024CC
:10575000681EF76800900AE0F168481C82B235487C
:1057600000F070FCF068401CF0600098641C8442FB
:10577000F2D3314A2F48F16800F064FCF068401C15
:10578000F0603069202802D3FF22AC321FE04101D3
:105790002A4A401C8C183061202229492046FAF7F9
:1057A000B9FD0B2220460399FAF7B4FD21461C31BE
:1057B0000698FAF719FE380C2075000A6075A7766E
:1057C000380AE076B168102908D3FF22BA3215A151
:1057D0000020FDF72BF8002007B0F0BD08460C2292
:1057E0005043164A174BC03A1350174B87187B602B
:1057F000049B002B00D013500598002800D078603F
:105800000198491C427A037A1002084A1843D21EB2
:10581000527B50436843B860B1603078401C3070B0
:105820002046D9E72866696C6529000053020020EC
:105830009CF2FF1F50040020FFFF00001007002013
:1058400088660000FD45000021610000C07A7047B5
:1058500010B51C30FAF727FE10BD000010B5044645
:10586000FFF7F6FF002812D0E07EA17E040209486F
:105870000C43017BC07A0902014307484069FAF7EB
:1058800023FE0449A41E497B6143081810BD002073
:10589000C04310BD500200209CF2FF1FC172704730
:1058A00070B50F49087DCA7C0402087BC97A0502DD
:1058B00014430D43002C01D06C430FE00848203006
:1058C000FAF7F1FD002802D06843044606E0002400
:1058D000FF228B3203A12046FCF7A8FF204670BDB3
:1058E000500200202866696C65290000F3B5012686
:1058F0000F46760281B031464D48FAF773FD3146C6
:105900004C48FAF76FFD4C4C0025C0214B48E56030
:10591000FAF768FD49487100C030FAF763FD256168
:105920002570A5604648656160603246454940483B
:10593000FAF70CFC3E4E307BF27A010201200004A3
:1059400011433818F61CFAF7BFFD0446F71E797BA1
:105950003D484843A04208D9FF2258323BA10020CD
:10596000FCF764FF7C7B38480BE03A484143A14296
:1059700008D2FF225B3235A10020FCF757FF7C7B69
:10598000344844432A49012000042031844204D38E
:105990003574280A7074204603E03474200A707449
:1059A0000020FAF721FD797B2046FAF78DFD294981
:1059B000000211394018040CFC82302226491F488D
:1059C000FAF7C4FB60021D491B4C486108620420C1
:1059D0006561A06000200C224243521892686369FE
:1059E000401CD21862610428F5D31A4A294667324E
:1059F0001048E56000F026FBE168164A491C6E324B
:105A00000C48E16000F01EFBE06825610B4D401C76
:105A10001149E060C035284620223031FAF77AFC7F
:105A200028460B220199FAF775FC01202061FEBD82
:105A300050020020500400209CF2FF1F500600205E
:105A400019300000386400005A1000002866696CA4
:105A50006529000091FF00003866000010B5FFF7CF
:105A6000AFF8FCF735FF002805D10448417802293A
:105A700001D101218170FFF7ADF810BD84F2FF1F45
:105A800010B5FFF787F80148007810BD84F2FF1FBA
:105A900010B50446FFF77EF8FCF7EAFE0649074A10
:105AA000002C04D0022048708870012002E0002001
:105AB00048708870106010BD84F2FF1F20F3FF1F34
:105AC000F8B50446FFF766F8FFF77AF8FCF700FF31
:105AD000002810D0FEF79AFD204A214B9168994288
